:020000040800F2
:1000000080910020B1020008D5890008B381000862
:10001000D18900085D160008F1CE0008000000003C
:10002000000000000000000000000000F1010008D6
:10003000A1180008000000004D02000821990008E6
:10004000CB020008CB020008CB020008CB0200085C
:10005000CB020008CB020008CB020008CB0200084C
:10006000CB020008CB020008CB020008C117000831
:10007000D1170008E1170008CB020008CB020008E6
:10008000CB020008CB020008CB020008CB0200081C
:1000900049CE0008CB020008CB020008B7280008B0
:1000A000CB020008CB020008CB020008CB020008FC
:1000B000CB020008CB020008CB020008CB020008EC
:1000C000CB020008CB020008CB020008CB020008DC
:1000D000CB020008CB020008CB020008D5A800081C
:1000E000CB020008CB020008CB020008CB020008BC
:1000F000CB020008CB020008CB020008CB020008AC
:10010000CB020008CB020008C5990008CB0200080A
:10011000CB020008CB0200087D9A0008CB02000841
:10012000CB020008CB020008CB020008CB0200087B
:10013000CB020008CB020008CB020008CB0200086B
:10014000CB020008CB020008CB020008CB0200085B
:10015000CB020008CB020008CB020008CB0200084B
:10016000CB020008CB020008CB020008CB0200083B
:10017000CB020008CB020008CB020008CB0200082B
:10018000CB020008CB020008CB020008CB0200081B
:10019000CB02000800000000CB020008CB020008E0
:1001A000CB020008CB020008CB020008CB020008FB
:1001B000CB020008CB020008CB020008CB020008EB
:1001C000CB020008CB020008CB020008CB020008DB
:1001D000CB020008CB020008DFF810D000F016FFB9
:1001E00000480047C1390108AFF30080809100202A
:1001F0002C4B19680868B0E8F04F80F30988BFF30A
:100200006F8F4FF0000080F31188704700000000EE
:1002100008480068006880F308884FF0000080F309
:10022000148862B661B6BFF34F8FBFF36F8F00DFE4
:1002300000BF00BF08ED00E0DFF80C00016841F4EA
:1002400070010160704700BF88ED00E0EFF30980A6
:10025000BFF36F8F134B1A681EF0100F08BF20ED0D
:10026000108A20E9F04F106009B44FF0500080F37D
:100270001188BFF34F8FBFF36F8F28F083FA4FF0D1
:10028000000080F3118809BC19680868B0E8F04FD5
:100290001EF0100F08BFB0EC108A80F30988BFF37E
:1002A0006F8F7047DC050020EFF30580704700007A
:1002B0000648804706480047FEE7FEE7FEE7FEE700
:1002C000FEE7FEE7FEE7FEE7FEE7FEE7B19900087E
:1002D000D90100082DE9F05F0546002092469B46B3
:1002E00088460646814640241BE02846414647464C
:1002F000224600F00CFD53465A46C01A914110D3D5
:1003000011461846224600F0F3FC2D1A67EB01084F
:100310004F4622460120002100F0EAFC17EB0009BD
:100320004E41201EA4F10104DFDC484631462A4636
:100330004346BDE8F09FA0F14101192900D82030C3
:10034000704710B5431A934209D28318881803E006
:1003500010F8011D03F8011D521EF9D210BD40EA2C
:1003600001039B0703D009E008C9121F08C0042A33
:10037000FAD203E011F8013B00F8013B521EF9D21A
:1003800010BDD2B201E000F8012B491EFBD270472C
:100390000022F6E710B513460A4604461946FFF751
:1003A000F0FF204610BD10B5044604E00B7800F8BD
:1003B000013B03B1491C521EF8D2204610BD421C1D
:1003C00010F8011B0029FBD1801A704710B50022DC
:1003D00000E0521C835C8C5CA34201D1002BF8D15D
:1003E000D8B2E1B2401A10BD034611F8012B00F853
:1003F000012B002AF9D118467047000070B50F4D47
:1004000000B92868002412E00A4602E09E4203D0A8
:10041000521C1378002BF9D1DAB2224305D02BB14C
:1004200024B1002100F8011B04E00446401C0678BA
:10043000002EE9D12860204670BD00005C06002037
:100440000FB400B58DB010A909900B9000914FF03A
:10045000FF300A9000200C90054806900548079050
:100460006A4609A80F9900F089FC0DB05DF814FBED
:10047000990D0008B70D00082DE9FF5F1D464FF0EC
:10048000FF3BD5E9014691465F464FF00008A96958
:100490007F1C01988847296A824688470028F6D140
:1004A000BAF1FF3F0CD024F4C064002E19DD6006C1
:1004B00014D5BAF12B0F09D0BAF12D0F0ED103E0EC
:1004C000584604B0BDE8F09F44F48064A9697F1CDD
:1004D00001988847761E8246002E02DDBAF1300F61
:1004E00003D0B9F1000F26D032E0A969761E44F49A
:1004F00000747F1C019888478246002E05DDBAF102
:10050000780F06D0BAF1580F03D0B9F1000F10D010
:100510001EE0B9F1000F02D0B9F1100F18D1A9698E
:10052000761E24F400747F1C0198884782461020B0
:1005300002E0082000E00A20814609E008FB0908E3
:10054000A969761E44F400747F1C0198884782468E
:10055000002E05DD4946504600F0FBFB0028EDDA91
:10056000E96901988847A00502D46FF00100A8E767
:10057000E00725D1600613D5600502D5C8F100005B
:1005800000E0404629680A1D2A600968220501D555
:10059000087015E0220701D5088011E008600FE01F
:1005A0002868011D29600068210502D580F80080B7
:1005B00006E0210702D5A0F8008001E0C0F8008025
:1005C00038467EE72DE9FF4F087883B09946FF282B
:1005D00005D0491C2D2804D00024002008E000206C
:1005E0000BE00124F9E700EB800003EB4000491C1D
:1005F0000B78FF2BF7D104B140420023029314780B
:1006000019461D462D2C01D02B2C04D1521C2D2C0B
:1006100013D000240294AA461478FF2C0FD00A2588
:10062000A3FB057801FB05814FF0000C03FB0C11C7
:10063000521CE3194AEB0101EEE70124EAE7814489
:1006400053EA010002D019F5C87F06DA03980021A9
:10065000C0E9001107B0BDE8F08F0025AE4E2F466F
:10066000DFF8B882184600F092FCCDE90001B9F13C
:10067000000002DAC9F1000400E004460023A74AA2
:100680001AEB030B42EB045A12E0E00707D02A46AC
:1006900033463846414600F0ECF9074688462A467C
:1006A00033461046194600F0E4F905460E4664103C
:1006B000002CEAD1DDE90001B9F1000F5A4653469A
:1006C00006DA00F048FA3A46434600F044FA05E0FC
:1006D00000F0CFF93A46434600F0CBF9029A0AB14E
:1006E00081F00041039AC2E90001B3E72DE9FF4F11
:1006F0001F468DB0D7E901464FF0FF382E20454602
:100700004FF000090B90B9696D1C0E988847396A43
:10071000824688470028F6D1BAF1FF3F0AD024F478
:10072000D064002E11DDBAF12B0F08D0BAF12D0FD5
:100730000BD102E0404611B08DE744F48064B96902
:100740006D1C0E9888478246761E6946600501D565
:100750002D2000E02B208DF8000001F1010B0DF1A0
:10076000200809E0B9696D1C0E98884782460F98E9
:1007700044F40074761E0560002E02DDBAF1300FDD
:10078000F0D00B998A453ED144F0800406E00F99E1
:10079000681CA9F1010944F400740860B9696D1C72
:1007A000761E0E98884782463028F0D02BE00B99B1
:1007B0008A4505D1200603D444F08004761E18E053
:1007C00050460DF039FA08B30DF11301761E44F4CA
:1007D00000748B4508D2AAF130000BF8010B2006FB
:1007E00007D5A9F1010003E0200602D409F10100B8
:1007F0008146A00502D50F99681C0860B9696D1C77
:100800000E9888478246002ED1DC53E0002E51DD41
:10081000BAF1650F02D0BAF1450F4BD1A00549D509
:10082000B9696D1C24F44074761E0E988847824680
:10083000002E0CDD2B2804D0BAF12D0F07D144F483
:100840008074B9696D1C0E9888478246761EE00553
:1008500001D52D2100E02B2108F8011BCDF82C80BB
:1008600021E00DF12901761E44F4007488450CD274
:10087000AAF1300010F0FF0088F8000002D10B99B7
:10088000884509D908F1010806E0E00501D52448AA
:1008900001E042F20F708146B9696D1C0E988847DD
:1008A00082460F980560002E04DD50460DF0C4F915
:1008B0000028D6D1F9690E988847FF208BF80000F0
:1008C00088F800000020069007904B466A4608A969
:1008D00006A8FFF777FEA00502D46FF001002AE713
:1008E00014F0240F0AD0E00714D1DDE906123868AD
:1008F000031D3B600068C0E900120BE0DDE9060162
:1009000000F0C4F90146E00704D13868021D3A60DE
:100910000068016028460EE7000014400000F03F28
:10092000F1D8FFFF2DE9FE4F804681EA0300C00F9A
:100930000C46009021F0004123F00045B8EB020086
:10094000A94105D24046214690461C460B46024628
:1009500023F00040104347D0270DC7F30A00C3F32C
:100960000A510290401A019040286BDAC3F3130039
:1009700040F4801B0098924620B10023D2EB030A7A
:1009800063EB0B0B01985946C0F14002504600F052
:10099000AFF906460D4650465946019A00F0C7F990
:1009A00010EB08006141002487EA115284EAE773E2
:1009B0001A4340D0009A62B3019A012A4FEA0752C3
:1009C00015DC001B61EB02014FF0004202EA075206
:1009D000CDE90042001C41F5801132462B4600F063
:1009E00088FA03B0BDE8F08F40462146F9E7001BC6
:1009F00061EB0201001C41F5801300185B412018D7
:100A0000A2F5001747EB030140EAD570B6196D4116
:100A100011E06D084FEA360645EAC0754FEA075205
:100A2000001B61EB0201001C41F5801149084FEAEF
:100A300030000019514132462B4603B0BDE8F04F5B
:100A400000F048BA0098012240000023D0EB0202D7
:100A500063EBE073009821464FEAE074B8EB0000C6
:100A600061EB0401E9E783F000435BE781F00041BB
:100A700058E72DE9FE4F81EA030404F0004421F019
:100A8000004100944FF0000B23F0004350EA0104B2
:100A90005ED052EA03045BD0C3F30A54C1F30A5593
:100AA0002C44A4F2F3340194A0FB0254C1F31301CB
:100AB00041F48011C3F3130343F4801301FB024498
:100AC00000FB034E840A970A44EA815447EA83579D
:100AD000A4FB076802958D0A05FB07854FEA932C56
:100AE00004FB0C542705029D4FEA065847EA1637C7
:100AF000B5EB08056EEB070C870E920E47EA8117DF
:100B000042EA8312A7FB0201B6EB0B0164EB00047F
:100B10002B0D43EA0C335E1844EB1C50DA46514669
:100B2000E7FB0201C5F313044FEA0B3343EA145306
:100B30004FEA0432019C43EA0603A4F10C04029438
:100B4000009CCDE900B400F0D4F903B0BDE8F08F0B
:100B500000200146F9E72DE9F04D81EA030404F095
:100B6000004B21F0004514464FF0000A23F00041ED
:100B700050EA050220D054EA01021DD0C5F30A57FD
:100B80000246C5F31303C1F31300C1F30A5640F440
:100B9000801543F48013A7EB0608101BD64608F215
:100BA000FD3873EB050002D308F1010801E092184B
:100BB0005B41B8F1000F03DA00200146BDE8F08D7B
:100BC00000204FF48011064684460EE0171B73EB9D
:100BD000050705D3121B63EB050306434CEA010C22
:100BE00049084FEA300092185B4150EA0107EDD105
:100BF00052EA030012D082EA040083EA05010843A6
:100C000005D0101BAB4106D20122002306E00022D2
:100C10004FF0004302E06FF0010253101AEB0600A0
:100C20004CEB085110EB0A0041EB0B01BDE8F04D15
:100C300000F050B900F0004230F000400AD0C10D81
:100C400001F56071C0F3160042EA0151C208400785
:100C500011437047002001467047000030B5041E64
:100C600071F1000404DB4FF00044404264EB0101E9
:100C7000141E73F1000405DB1C464FF00043524282
:100C800063EB0403994208BF904230BD01F000437A
:100C900030B421F0004150EA010206D00A0DA2F55D
:100CA0006072C1F31301002A02DC30BC00207047DF
:100CB000440F44EAC104C100E01830BC00EBC2504C
:100CC00000F08AB830B50B460146002020220124EE
:100CD00009E021FA02F59D4205D303FA02F5491B0A
:100CE00004FA02F52844151EA2F10102F1DC30BD20
:100CF000202A04DB203A00FA02F1002070479140DC
:100D0000C2F1200320FA03F3194390407047202AD0
:100D100004DB203A21FA02F00021704721FA02F3A5
:100D2000D040C2F120029140084319467047202A62
:100D300006DBCB17203A41FA02F043EAE07306E003
:100D400041FA02F3D040C2F1200291400843194613
:100D500070473A2800D2303820F02002412A01D3CF
:100D6000A2F13700884201D34FF0FF3070470000F6
:100D7000026811441378016018467047D160044935
:100D800051610449116200211161114600F056B908
:100D9000710D000831100008426842B1016811F875
:100DA000013B23B1521EC0E90012184670470121D1
:100DB000C160881E704742685AB1C368016843B970
:100DC00083688B4205D0491E521CC0E900120020E6
:100DD00070474FF0FF3070470029A8BF7047401C94
:100DE000490008BF20F00100704710B4B0FA80FC41
:100DF00000FA0CF050EA010404BF10BC704749B17E
:100E0000CCF1200421FA04F411FA0CF118BF0121ED
:100E100021430843A3EB0C01CB1D4FEA00614FEACD
:100E2000102042BF002010BC704700EBC35010449C
:100E30000029A4BF10BC7047401C490008BF20F027
:100E4000010010BC704710B541000CD0C0F3C75171
:100E5000962908DC7E2909DC06DB410204D000F07B
:100E6000004040F07E5010BD002010BDC1F196043E
:100E7000C4F1200100FA01F1E040FFF7ADFFA0400E
:100E800010BDF0B400F0004221F0004120F000401D
:100E9000CE0DC30DC1F3160141F40001C0F31600DD
:100EA0004C42154640F40000761E09E010EB440069
:100EB00002D582F0004240428842F7D840005B1ED3
:100EC000B342F9DA18B1F0BC0021FFF78EBF284613
:100ED000F0BC704710B5141E73F1000408DA401C12
:100EE00041F1000192185B411A4301D120F0010049
:100EF00010BD2DE9F04D92469B4611B1B1FA81F239
:100F000002E0B0FA80F220329046FFF7F1FE04468C
:100F10000F4640EA0A0041EA0B0153465A4608438D
:100F200013D0114653EA010019D0C8F140025046CF
:100F3000FFF7EDFE05460E46504659464246FFF77E
:100F4000D7FE084305D0012004E020463946BDE81D
:100F5000F08D0020054346EAE0762C4337430A989B
:100F60006305E40AA0EB08000022FD0A44EA4754A6
:100F70000A3002D500200146E9E701051019694150
:100F8000DDE9084500196941BDE8F04DA2E70EB55D
:100F900040F2334202920022CDE900221346FFF7CD
:100FA000A8FF03B000BDC1F30A52C1F3130140F220
:100FB000FF3341F480119A4202DA00200146704763
:100FC00040F233439A42A2F2334202DC5242FFF72C
:100FD0009EBEFFF78DBE002801DBC0F10040002956
:100FE00001DBC1F10041814202D24FF0004004E038
:100FF0004FF0005001D14FF0C0404FEA2062EFF3B4
:10100000008162F31F6181F300887047064C074D31
:1010100006E0E06840F0010394E8070098471034C8
:10102000AC42F6D3FFF7DCF8B0AC0208D0AC020853
:10103000C0B24FF4F05100F099B900002DE9F34F20
:101040008BB04FF0000801F10C000C464FF0010B83
:1010500046460DF1080A0190626901210198904706
:10106000051E2DD0252D2CD0216A8847C0B162697C
:10107000012101989047216A88470028F7D1411E35
:1010800062690198904700E0761CA1690B98884737
:10109000216A88470028F7D1E1690B988847DBE788
:1010A000A1690B9888470746A84201D1761CD3E76F
:1010B000E1690B9888477F1C02D1B8F1000F6FD00F
:1010C00047E1002762693D463946019890472A2842
:1010D00004D162690121019890470125DFF88892C7
:1010E0006269012101989047A0F130010A290AD2D2
:1010F0004F45E5DC07EB870100EB4107303FDFD4CC
:1011000045F01005ECE7E90601D46FF000476C28C4
:101110000AD04C2814D0682815D06A280DD074281D
:101120001CD07A281AD01DE06269012101989047ED
:101130006C2802D045F0040514E045F002050DE0EE
:1011400045F020050AE0626901210198904768286E
:1011500002D045F0080505E045F40065626901210B
:1011600001989047C4E9015765283DD019DC5828FB
:101170007AD00CDC452837D004DC252826D041283D
:1011800031D131E046282FD047282CD12CE05B28E4
:1011900077D0612828D063287CD0642823D15AE0F6
:1011A000D1E06F2848D008DC66281DD067281BD006
:1011B000692821D06E2816D127E0702845D07328E1
:1011C00068D0752847D078280DD14DE0A1690B98DB
:1011D0008847054625283FF469AFE1690B988847A1
:1011E0006D1C3FF46AAFB4E023466A466FF001001D
:1011F0000B99FFF77BFA9FE045F040006060A8077D
:1012000023464FF0000236D43EE0E8077FF447AFB4
:101210002068011D21600068290501D506701BE7C3
:10122000290701D5068017E7A90703D5F117C0E9FB
:10123000006111E706600FE745F040006060A80715
:1012400023464FF0080216D41EE040F60E0125EAB0
:101250000100606016E045F040006060A80723468A
:101260004FF00A0207D40FE045F040006060A80785
:1012700008D5234610226FF001000B99AFF30080D0
:101280005AE007E0234610226FF001000B99FFF7A8
:10129000F3F851E04FF000094F464B46632802D067
:1012A0005B2807D041E02079C00601D40120A0606E
:1012B00001273AE062690121019890475E2805D133
:1012C0004FF001096269494601989047216939B98F
:1012D00000210A46534643F82120491C0829FADB1D
:1012E000B0B3216969B9C11700EBD16253110AEBA0
:1012F000830122F01F02821A01200B6890400343F1
:101300000B6062690121019890475D28E8D1B9F12D
:10131000000F09D00020514651F82020D24341F857
:101320002020401C0828F7DB02AB224600976FF014
:1013300001000B99AFF3008000280CDA401C08D1A3
:10134000BBF1000F05D04FF0FF300DB0BDE8F08FBE
:10135000FFE74046F9E7E90701D108F10108064433
:101360004FF0000B78E60000CCCCCC0C7F2801D9E4
:10137000002208E0064A02EB5002C007127800D1B2
:10138000120902F00F02012090400840704700004F
:10139000ECA5020870B58C1810F8015B15F0070376
:1013A00001D110F8013B2A1106D110F8012B03E0FE
:1013B00010F8016B01F8016B5B1EF9D12B0705D406
:1013C0000023521E0DD401F8013BFAE710F8013B4F
:1013D000CB1A921C03E013F8015B01F8015B521E6B
:1013E000F9D5A142D8D3002070BD70B50546AC6ACE
:1013F000E06D00F0500098BBE06D40F40070E065D7
:101400002068006800F00800A8B1206806F02BFFF3
:1014100010B32068C06800F40050E8B9E06D20F413
:101420008070E065E06D00F48050A8B9E06D40F098
:101430000100E06510E02068C06800F0020058B9C3
:10144000E06D20F48070E065E06D00F4805018B924
:10145000E06D40F00100E065204602F095FB0CE0F5
:10146000FFE7E06D00F0100018B1204602F096FB97
:1014700003E0606D416B2846884770BD70B5054636
:10148000AC6AE06D40F04000E065206E40F0040082
:101490002066204602F082FB70BD70B50446A56A46
:1014A000284602F073FB70BD70B50446206806F054
:1014B000BCFE0646206806F0BDFE98B396BB2068C9
:1014C000806800F00D0001280AD1206881681A4A5E
:1014D0001140891C816000BF03202168086009E079
:1014E000E06D40F01000E065206E40F001002066E5
:1014F000012070BD03F010FA054614E003F00CFA69
:10150000401B02280FD92068806800F0010050B10C
:10151000E06D40F01000E065206E40F001002066B4
:101520000120E6E705E02068806800F0010000285F
:10153000E4D10020DDE70000C0FFFF7F38B504469E
:1015400000200090206806F075FE002858D1206821
:1015500080682C49084048B1E06D40F01000E0651B
:10156000206E40F001002066012038BD206806F0A2
:1015700041FE2168B1F1A04F03D0234A2168914276
:1015800001D1224900E02249084606F03BFE00F462
:10159000000080B11F4800681F49B0FBF1F0401CFB
:1015A00000EB40008000009002E00098401E009098
:1015B00000980028F9D103F0AFF905461AE0206839
:1015C00006F038FE10B9206806F014FE03F0A4F906
:1015D000401B02280ED92068006800F0010048B9BD
:1015E000E06D40F01000E065206E40F001002066E4
:1015F0000120BAE72068006800F001000028DED072
:101600000020B2E73F0000800001005000030050BE
:1016100000070050BC000020400D030010B5024937
:10162000086918F0A9FF10BD6805002010B502492F
:10163000486A18F0A1FF10BD6805002010B50249E6
:10164000886B18F099FF10BD6805002010B502499D
:10165000C86C18F091FF10BD6805002000BFFEE7C0
:101660000346042B15D007DC7BB1012B0ED0022BD7
:101670000DD0032B12D10BE0202B0BD0212B0AD045
:10168000222B09D0232B09D107E008E007E006E070
:1016900005E004E003E002E001E000E000BF00BF7D
:1016A000002070470020704710B50022044905480B
:1016B00009F0FBFA0449034809F0ECFA002010BDD8
:1016C0006C1D00209C1000206C15002070B5044695
:1016D0000D4621460A4809F0DDFA094809F0A8FA42
:1016E00080210848FEF754FE214606482A68FEF786
:1016F0005AFE01210448006818F06CFF002070BDFC
:101700009C100020000700200000002010B50346B8
:101710000C460021084610BD2DE9F04104460D4657
:1017200000260A48D0F8BC72D7F8140210B1012084
:10173000BDE8F0812A462146044809F0B6FA03487C
:1017400009F04FFB06463046F2E700009C100020EF
:10175000024600BF0948806840F00100074B9860CE
:1017600000BF00BF1846026000BF00BF03461980DB
:1017700000BF00BF006880B2704700000030024028
:1017800008B54FF480500C49896C01430A4A9164B2
:101790001146896C0140009100BF00BF48F205006E
:1017A0000649486100BF0820896821F018010143FB
:1017B000024A916000BF08BD0010024000300240A4
:1017C00010B5024802F0E1FC10BD0000940A0020B0
:1017D00010B5024802F0D9FC10BD0000F40A002048
:1017E00010B50021084614F031FA024802F0CDFC91
:1017F00010BD00005808002030B50E4D0468AC4202
:1018000001D20D4901E00C4920310B460478083C17
:101810001425B4FBF5F2446CA40803EB840484643F
:10182000054C8034C46402F01F050124AC400465FB
:1018300030BD0000080402400008024001794A1E41
:10184000064B03EB82024265044A403282654A1E1F
:1018500002F01F0301229A40C2657047000902404E
:1018600030B5D0E913546C60446D14B1D0E916540E
:101870006C6090F8444004F01F050124AC40056CF6
:101880006C60046863608468102C04D10468A260F2
:101890000468E16003E00468A1600468E26030BDB0
:1018A000704700002DE9F04700240025002600279E
:1018B0004FF005084FF00509504800884FF6FF71BA
:1018C000884202D14FF4002003E04C480088000415
:1018D000800940084FF48021B1FBF0F200FB1210A8
:1018E000C40A6EE0454800884FF6FF71884202D175
:1018F0004FF4002003E041480088000480094008BC
:101900004FF48021B1FBF0F13C4800884FF6FF72A4
:10191000904202D14FF4002003E0384800880004D0
:10192000800940084FF0006202EBC42201FB002650
:10193000304601F041FC8046B8F1040F40D1651CEF
:1019400030E02E4800884FF6FF71884202D14FF4F4
:10195000002003E0294800880004800940084FF473
:101960008021B1FBF0F1254800884FF6FF729042CC
:1019700002D14FF4002003E02048008800048009D1
:1019800040084FF0006202EBC52201FB00273846F9
:1019900001F012FC8146B9F1040F02D00520BDE828
:1019A000F0876D1CE01D8542CBD30721204601F056
:1019B00035F808B10120F2E700F090FF0020EEE7D3
:1019C000E41D0E4800884FF6FF71884202D14FF4A3
:1019D000002003E0094800880004800940084FF413
:1019E0008021B1FBF0F200FB12100E2101EBD020A0
:1019F000A0423FF677AF0520D1E70000E075FF1F5A
:101A000010B50446204600F095FF10BD70B50546A0
:101A1000002400F07DFF08B10E2070BD55480088FD
:101A20004FF6FF71884202D14FF4002003E0514885
:101A300000880004800940084FF48021B1FBF0F2D7
:101A400000FB1210C40A3DE035B90121204600F028
:101A5000E5FFA8B30120E0E7464800884FF6FF7194
:101A6000884202D14FF4002003E04248008800047D
:101A7000800940084FF48021B1FBF0F13D48008817
:101A80004FF6FF72904202D14FF4002003E0394834
:101A900000880004800940084FF0006202EBC42275
:101AA00001FB00264FF4006130460BF023FA1028AA
:101AB00007D10121204600F0B1FF08B10120ACE7B9
:101AC000FFE7641C2B4800884FF6FF71884202D163
:101AD0004FF4002003E027480088000480094008F4
:101AE0004FF48021B1FBF0F200FB12100E2101EB4C
:101AF000D020A042A8D800F0F1FE1E4800884FF682
:101B0000FF71884202D14FF4002003E01948008899
:101B10000004800940084FF48021B1FBF0F200FB83
:101B20001210C60A0221304607F04CFD08B102200F
:101B300073E70020104908800E4800884FF6FF71B7
:101B4000884202D14FF4002003E00A4800880004D4
:101B5000800940084FF48021B1FBF0F200FB121025
:101B6000C0F3C720054908702020054908600020FF
:101B700053E70000E075FF1FC8050020CA050020DC
:101B8000CC0500202DE9F14F88B005250024A146A1
:101B90000026A246002007908346069005900490F8
:101BA00000BF0390029000F0B3FE18B10E2009B000
:101BB000BDE8F08FFFF7E4FD0120F9490870F9480E
:101BC00000884FF6FF71884202D14FF4002003E0F5
:101BD000F44800880004800940084FF48021B1FBDC
:101BE000F0F200FB1210C40A34E0EE4800884FF611
:101BF000FF71884202D14FF4002003E0E9480088D9
:101C00000004800940084FF48021B1FBF0F1E54861
:101C100000884FF6FF72904202D14FF4002003E09B
:101C2000E04800880004800940084FF0006202EBA1
:101C3000C42201FB0029002608E009EB0600DA496E
:101C4000086009EB0600076840680836B6F5006FC3
:101C5000F3D3641CD34800884FF6FF71884202D149
:101C60004FF4002003E0CF480088000480094008BA
:101C70004FF48021B1FBF0F200FB12100E2101EBBA
:101C8000D020A042B1D80020C5490870C5480088BE
:101C90004FF6FF71884202D14FF4002003E0C148A3
:101CA00000880004800940084FF48021B1FBF0F265
:101CB00000FB1210C40A3BE0BA4800884FF6FF71DF
:101CC000884202D14FF4002003E0B64800880004A7
:101CD000800940084FF48021B1FBF0F1B148008841
:101CE0004FF6FF72904202D14FF4002003E0AD485E
:101CF00000880004800940084FF0006202EBC42213
:101D000001FB0029484601F057FA0546022D01D093
:101D1000012D03D10798401C079008E0032D06D140
:101D2000BBF1000F00D1059406940BF1010B641C6C
:101D30009C4800884FF6FF71884202D14FF4002082
:101D400003E0984800880004800940084FF480218F
:101D5000B1FBF0F200FB12100E2101EBD020A042EB
:101D6000AAD8079800287DD1BBF1000F7BD08D4801
:101D700000884FF6FF71884202D14FF4002003E043
:101D8000884800880004800940084FF48021B1FB96
:101D9000F0F200FB12110598A0EBD1200D300E21BE
:101DA000B0FBF1F201FB12017E4800884FF6FF7292
:101DB000904202D14FF4002003E07A4800880004EA
:101DC000800940084FF48022B2FBF0F300FB13209F
:101DD00001EBD020510201EBC021724800884FF680
:101DE000FF72904202D14FF4002003E06D4800885A
:101DF0000004800940084FF48022B2FBF0F26948E9
:101E000000884FF6FF73984202D14FF4002003E0A0
:101E10006448008800048009400802FB001001901B
:101E200001F0CAF9042840D15E4800884FF6FF71DE
:101E3000884202D14FF4002003E05A480088000491
:101E4000800940084FF48021B1FBF0F200FB121131
:101E50000698A0EBD120401C0E21B0FBF1F201FB53
:101E6000120101E021E01CE04E4800884FF6FF72AD
:101E7000904202D14FF4002003E04A480088000459
:101E8000800940084FF48022B2FBF0F300FB1320DE
:101E900001EBD0200121019007F094FB28B1022032
:101EA00085E60020FFF7B2FD81E63E4800884FF648
:101EB000FF71884202D14FF4002003E039480088C6
:101EC0000004800940084FF48021B1FBF0F200FBD0
:101ED0001210C40A37E1334800884FF6FF71884278
:101EE00002D14FF4002003E02E480088000480094E
:101EF00040084FF48021B1FBF0F12A4800884FF6EA
:101F0000FF72904202D14FF4002003E02548008880
:101F10000004800940084FF0006202EBC42201FB7C
:101F20000029484601F048F90546012D73D11D48A6
:101F300000884FF6FF71884201D1E80403E0194898
:101F400000880004800940084FF48021B1FBF0F2C2
:101F500000FB1210B4EBD02F70D0124800884FF65F
:101F6000FF71884202D14FF4002003E00D48008841
:101F70000004800940084FF48021B1FBF0F200FB1F
:101F80001210072101EBD020A0426AD0054800883A
:101F90004FF6FF71884209D14FF400200AE000009B
:101FA000D4050020E075FF1FD0050020FE48008802
:101FB0000004800940084FF48021B1FBF0F200FBDF
:101FC0001210A4EBD0200D300E21B0FBF1F201FB7A
:101FD0001201F54800884FF6FF72904202D14FF48B
:101FE000002003E0F04800880004800940084FF416
:101FF0008022B2FBF0F300FB132001EBD020510252
:1020000001EBC021E84800884FF6FF72904203D1EF
:102010004FF4002004E095E0E348008800048009C4
:1020200040084FF48022B2FBF0F2DF4800884FF600
:10203000FF73984203D14FF4002004E011E0DA4826
:10204000008800048009400802FB0010019001F0A4
:10205000B3F8032802D10020039062E0012003902E
:102060005FE0D14800884FF6FF71884202D14FF4FB
:10207000002003E0CC4800880004800940084FF4A9
:102080008021B1FBF0F200FB1210A4EBD020401C29
:102090000E21B0FBF1F201FB1201C34800884FF69C
:1020A000FF72904202D14FF4002003E0BE48008846
:1020B0000004800940084FF48022B2FBF0F300FBDB
:1020C000132001EBD020510201EBC021B64800885B
:1020D0004FF6FF72904202D14FF4002003E0B24865
:1020E00000880004800940084FF48022B2FBF0F21F
:1020F000AD4800884FF6FF73984202D14FF400209C
:1021000003E0A948008800048009400802FB001091
:10211000019001F051F810B90020039001E0012076
:102120000390039870B9A1490C7001220021084660
:1021300006F0D2FEB0F5807F01D00C2037E50120FB
:1021400004901AE0641C984800884FF6FF7188429A
:1021500002D14FF4002003E0934800880004800976
:1021600040084FF48021B1FBF0F200FB12100E2169
:1021700001EBD020A0423FF6AEAE00BF4FF0000A08
:10218000894800884FF6FF71884202D14FF4002041
:1021900003E0854800880004800940084FF480214E
:1021A000B1FBF0F200FB1210C40A33E17E48008854
:1021B0004FF6FF71884202D14FF4002003E07A48C5
:1021C00000880004800940084FF48021B1FBF0F141
:1021D000754800884FF6FF72904202D14FF40020FC
:1021E00003E0714800880004800940084FF0006255
:1021F00002EBC42201FB0029484600F0DDFF054642
:10220000022D7CD1684800884FF6FF71884201D1C9
:10221000A80403E0644800880004800940084FF4E3
:102220008021B1FBF0F200FB1210B4EBD02F7DD077
:102230005D4800884FF6FF71884202D14FF40020BC
:1022400003E0594800880004800940084FF48021C9
:10225000B1FBF0F200FB1210072101EBD020A042ED
:1022600064D0514800884FF6FF71884202D14FF484
:10227000002003E04C4800880004800940084FF427
:102280008021B1FBF0F200FB1210A4EBD0200D3046
:102290000E21B0FBF1F201FB1201434800884FF61A
:1022A000FF72904202D14FF4002003E03E480088C4
:1022B0000004800940084FF48022B2FBF0F300FBD9
:1022C000132001EBD020510201EBC02136480088D9
:1022D0004FF6FF72904202D14FF4002003E03248E3
:1022E00000880004800940084FF48022B2FBF0F21D
:1022F0002D4800884FF6FF73984205D101E085E034
:1023000014E04FF4002003E027480088000480090F
:10231000400802FB0010019000F04EFF032802D19C
:102320000020039066E00120039063E01E480088CF
:102330004FF6FF71884202D14FF4002003E01A48A3
:1023400000880004800940084FF48021B1FBF0F2BE
:1023500000FB1210A4EBD020401C0E21B0FBF1F2C8
:1023600001FB1201104800884FF6FF72904202D123
:102370004FF4002003E00C48008800048009400866
:102380004FF48022B2FBF0F300FB132001EBD020CE
:10239000510201EBC021044800884FF6FF729042C1
:1023A00006D14FF4002007E0E075FF1FCA050020AA
:1023B000F74800880004800940084FF48022B2FBEF
:1023C000F0F2F34800884FF6FF73984202D14FF4C1
:1023D000002003E0EE48008800048009400802FB6A
:1023E0000010019000F0E8FE10B90020039001E019
:1023F00001200390039860B9BAF1000F04D1E549B8
:102400000C700AF1010A04E00A2049E5032D00D10D
:102410000694641CDE4800884FF6FF71884202D1A2
:102420004FF4002003E0DA480088000480094008E7
:102430004FF48021B1FBF0F200FB12100E2101EBF2
:10244000D020A0423FF6B2AEBAF1000F3CD1D04846
:1024500000884FF6FF71884202D14FF4002003E05C
:10246000CB4800880004800940084FF48021B1FB6C
:10247000F0F200FB12110698A0EBD120401C0E21B7
:10248000B0FBF1F201FB1201C14800884FF6FF7268
:10249000904202D14FF4002003E0BD4800880004C0
:1024A000800940084FF48022B2FBF0F300FB1320B8
:1024B00001EBD020B74908700221B648007807F038
:1024C00081F808B10220EBE40020B3490880202005
:1024D000B2490860202640E0AD4800884FF6FF7101
:1024E000884202D14FF4002003E0A948008800048C
:1024F000800940084FF48021B1FBF0F1A448008826
:102500004FF6FF72904202D14FF4002003E0A04842
:1025100000880004800942089E4800784FF000635C
:1025200003EBC02001FB020030440768D0F80480B0
:102530004FF0FF3187EA010088EA010108430AD021
:1025400095480088401C94490880944800680830E9
:102550009249086000E003E00836B6F5006FBBD38F
:1025600000BF8C4804780078059065E088480088B2
:102570004FF6FF71884202D14FF4002003E08448F7
:1025800000880004800940084FF48021B1FBF0F27C
:1025900000FB1210A4EBD0200D300E21B0FBF1F2A5
:1025A00001FB12017A4800884FF6FF72904202D177
:1025B0004FF4002003E076480088000480094008BA
:1025C0004FF48022B2FBF0F300FB132001EBD02488
:1025D0006F4800884FF6FF71884201D1500003E038
:1025E0006B4800880004800940084FF48021B1FB4B
:1025F000F0F1674800884FF6FF72904202D14FF425
:10260000002003E0624800880004800940084FF081
:10261000006202EBC42201FB0020019000F0CCFD1F
:102620000546032D06D15C480088FC305A490880D5
:10263000059401E00A2033E4554800884FF6FF7105
:10264000884202D14FF4002003E051480088000482
:10265000800940084FF48021B1FBF0F200FB12101A
:10266000B4EBD02F19D04A4800884FF6FF7188424A
:1026700002D14FF4002003E045480088000480099F
:1026800040084FF48021B1FBF0F200FB121007214B
:1026900001EBD020A0427FF469AF3D4800884FF69F
:1026A000FF71884202D14FF4002003E038480088CF
:1026B0000004800940084FF48021B1FBF0F200FBD8
:1026C000121034490978A1EBD020401C0E21B0FB38
:1026D000F1F201FB12012E4800884FF6FF72904282
:1026E00002D14FF4002003E029480088000480094B
:1026F00040084FF48022B2FBF0F300FB132001EB03
:10270000D024234800884FF6FF71884201D1500041
:1027100003E01F4800880004800940084FF480212E
:10272000B1FBF0F11A4800884FF6FF72904202D1D7
:102730004FF4002003E01648008800048009400898
:102740004FF0006202EBC42201FB002976E00898FA
:1027500030B90121204600F061F978B10120EDE4A3
:102760004FF4006148460AF0C5FB102806D101214C
:10277000204600F053F908B10120DFE40448008846
:102780004FF6FF7188420BD14FF400200CE000009F
:10279000E075FF1FCA050020C8050020CC050020F9
:1027A000314800880004800940084FF48021B1FBC3
:1027B000F0F200FB1210A4EBD020401C0E21B0FB65
:1027C000F1F201FB1201284800884FF6FF72904297
:1027D00002D14FF4002003E0234800880004800960
:1027E00040084FF48022B2FBF0F300FB132001EB12
:1027F000D0241D4800884FF6FF71884201D1500057
:1028000003E0194800880004800940084FF4802143
:10281000B1FBF0F1144800884FF6FF72904202D1EC
:102820004FF4002003E010480088000480094008AD
:102830004FF0006202EBC42201FB0029059884429C
:1028400085D100F04BF8049858B9002108460AF0E9
:1028500065FB0290029820B10298122801D0022054
:102860006CE400206AE40000E075FF1FF8B5044640
:102870000D467CB14FF6FF7084420BD000200090D3
:1028800000266946204606F0C1FD064600982880CD
:102890003046F8BD0820FCE770B504460D4644B14B
:1028A0004FF6FF70844204D0294620460AF0A2FB6E
:1028B00070BD0820FCE710B5402001F02BFF802000
:1028C00001F028FF4FF4807001F024FF4FF40070F6
:1028D00001F020FF10BD72B600BFFEE70B48006894
:1028E00020F480600949086000BF0846006840F491
:1028F000805008600846006820F48050086000BFDF
:102900000846006840F4806008607047002002407C
:1029100010B58EB0FF200290089001A801F000FED3
:10292000079800F4800008B1002400E00E2420463F
:102930000EB010BD10B5014600220020364B1B68BA
:1029400003F4806333B1344B1B6823F48063324C4F
:1029500023600122304B5B6943F001032E4C63611D
:1029600000230B604B6000BF2B4B1B6903F48033CB
:10297000B3F5803FF8D0284B1B6903F00203022B0C
:102980001DD0254B1B6903F00803082B17D0224BE1
:102990001B6903F01003102B11D01F4B1B6903F0B0
:1029A0002003202B0BD01C4B1B6903F04003402B52
:1029B00005D0194B1B6903F08003802B00D10D203B
:1029C000154B1B6903F0010323B100BF0123124C17
:1029D000236100BF104B5B6923F001030E4C636160
:1029E000012A10D100BF23461B6843F480532360A3
:1029F00023461B6823F48053236000BF23461B68D3
:102A000043F48063236000BF034B9B6943F00043A2
:102A1000014CA36100BF10BD002002402DE9F04130
:102A200086B004460D4600274FF0010800200190B3
:102A30001C4800884FF6FF71884202D14FF40020F5
:102A400003E0184800880004800940084FF4802102
:102A5000B1FBF0F1134800884FF6FF72904202D1AB
:102A60004FF4002003E00F4800880004800940086C
:102A70004FF0006202EBC42201FB0026304600F05A
:102A800061FB80460020029005950494CDF80C80EF
:102A900001A902A801F0C2FC00B10127384606B026
:102AA000BDE8F081E075FF1F70B5044615461E466F
:102AB0002A4633462146002001F088FD70BD000003
:102AC0001B49087F012801D0032816D1194909683C
:102AD00021F40071174A116000BF1146096841F4E2
:102AE000006111601146096821F40061116000BFA6
:102AF0001146096841F400711160022801D00328D1
:102B000011D100BF0B49096841F48051094A116095
:102B10001146096821F48051116000BF114609680F
:102B200041F4806111600021014A11777047000073
:102B30009C000020002002401249096A01F4800133
:102B400091B100F0010129B10E49496941F0040138
:102B50000C4A516100F0020169B10A49496941F426
:102B60000041084A516106E00649496948F20402F9
:102B70001143044A51610349496941F48031014AD2
:102B800051617047002002400248006F00F480301D
:102B90007047000000200240F0B50346474E3668FB
:102BA00006F4807696B94FF00064454E36884FF6AD
:102BB000FF77BE4201D1261203E0414E368836042B
:102BC000B6094FF0006707EB560511E03C4E36881A
:102BD0004FF6FF77BE4202D14FF4002603E0384E95
:102BE00036883604B6094FF0006707EB56043D46B9
:102BF000344E366A06F480067EBB1E7806F0030665
:102C0000012E12D12F4E766AC6F30E004FF00066E9
:102C100006EB00160E602B4EB66AC6F30E004FF0A0
:102C2000006606EB001616603FE01E7806F003060D
:102C3000022E3AD1234E766CC6F30E004FF000669A
:102C400006EB00160E601F4EB66CC6F30E004FF07A
:102C5000006606EB0016166027E0FFE71E7806F018
:102C60000306012E0ED1174E766AC6F30E0004EB52
:102C7000C0060E60134EB66AC6F30E0004EBC00623
:102C8000166012E01E7806F00306022E0DD10D4EDE
:102C9000766CC6F30E0005EBC0060E60094EB66CEE
:102CA000C6F30E0005EBC0061660064F1E68BF6A2D
:102CB00007F000473E431E60F0BD000000000140E9
:102CC000E075FF1F002002400548006AC1B2AA2932
:102CD00003D0CC2901D0BB2070470846FCE7000098
:102CE00000200240012804D1054A126FD2B20A60C6
:102CF00005E0022803D1024A526FD2B20A6070473F
:102D0000002002400249086A20F0FF0070470000DE
:102D10000020024050B9194BDB6A03F07F030B60BF
:102D2000164BDB6AC3F30643136025E001280AD182
:102D3000124B1B6B03F07F030B60104B1B6BC3F339
:102D40000643136018E002280AD10C4BDB6C03F039
:102D50007F030B60094BDB6CC3F3064313600BE08E
:102D6000042809D1054B1B6D03F07F030B60034B57
:102D70001B6DC3F306431360704700000020024040
:102D8000174A126A02F4800232B9154A526922F4D3
:102D90000062134B5A610FE001F0010232B1104A98
:102DA000526922F400620E4B5A6105E00C4A5269E6
:102DB00042F400620A4B5A61094A526922F47E7257
:102DC000C3B242EAC302064B5A611A46526942F044
:102DD00002025A611A46526942F480325A617047BF
:102DE0000020024010B50849496941F00101064C34
:102DF0006161026000BF00BF00BFBFF36F8F00BF03
:102E000000BF00BF436010BD00200240F0B5024685
:102E1000402314460D460C4E766946F480260A4F30
:102E20007E6100BFEFF31086304672B600BF2E6899
:102E30002660241D2D1D5E1EF3B2002BF7D100BFAE
:102E400080F3108800BFF0BD0020024070B5054639
:102E500001F062FD064606E001F05EFD801BA8421F
:102E600001D9032070BD1A48006900F48030B0F524
:102E7000803FF1D0164800694CF2FA3100EA0104B3
:102E8000CCB11448406820431249486000BF04F0A8
:102E9000704030B10E48806904F0704108430C491D
:102EA000886124F0704018B124F07040084908612E
:102EB00000BF0120D6E70648006900F0010020B1FC
:102EC00000BF01200249086100BF0020CAE70000DE
:102ED000002002409C0000202DE9F0478046052597
:102EE000052600240027A2469348047893480088CA
:102EF0004FF6FF71884202D14FF4002003E08F4863
:102F000000880004800940084FF48021B1FBF0F1F3
:102F10008A4800884FF6FF72904202D14FF4002099
:102F200003E0864800880004800940084FF00062F2
:102F300002EBC42201FB0029484600F03DF905469A
:102F40007E4800884FF6FF71884202D14FF400207E
:102F500003E07A4800880004800940084FF480218B
:102F6000B1FBF0F200FB1210A4EBD020401C0E21AC
:102F7000B0FBF1F201FB1201704800884FF6FF72BE
:102F8000904202D14FF4002003E06C480088000416
:102F9000800940084FF48022B2FBF0F300FB1320BD
:102FA00001EBD027654800884FF6FF71884201D1B8
:102FB000500003E0614800880004800940084FF495
:102FC0008021B1FBF0F15D4800884FF6FF7290421E
:102FD00002D14FF4002003E0584800880004800923
:102FE00040084FF0006202EBC72201FB002948466F
:102FF00000F0E2F80646514800884FF6FF7188421B
:1030000002D14FF4002003E04C48008800048009FE
:1030100040084FF48021B1FBF0F200FB1210A4EB4A
:10302000D0200D300E21B0FBF1F201FB120143481C
:1030300000884FF6FF72904202D14FF4002003E067
:103040003E4800880004800940084FF48022B2FB0B
:10305000F0F300FB132001EBD02AB8F1000F54D09D
:10306000B8F1010F03D0B8F1020F5FD158E0022D83
:1030700023D133480068B0F5006F02D22046BDE886
:10308000F087042E04D1FEF70DFC08B1701FF6E79F
:103090000321204606F096FA10B14FF0FF30EEE71C
:1030A0000221384606F08EFA10B14FF0FF30E6E705
:1030B0002020234908603846E1E7012D22D120482D
:1030C0000068B0F5006F01D22046D8E7042E04D185
:1030D000FEF7E8FB08B1701FD1E70321204606F098
:1030E00071FA10B14FF0FF30C9E70121384606F000
:1030F00069FA10B14FF0FF30C1E720201049086095
:103100003846BCE74FF0FF30B9E7022D01D1204629
:10311000B5E7012D01D15046B1E74FF0FF30AEE7E2
:103120000EB93846ABE74FF0FF30A8E700BF00BF4D
:103130004FF0FF30A3E70000CA050020E075FF1F35
:10314000CC05002001460020194A126802F4807262
:10315000B2B9184A12884FF6FF739A4202D14FF45F
:10316000002203E0134A1288120492094FF0006310
:1031700003EB52028A4201D9012017E0022015E038
:103180000C4A12884FF6FF739A4202D14FF4002284
:1031900003E0084A1288120492094FF0006303EB1F
:1031A00052028A4201D9022000E00120704700004B
:1031B00000000140E075FF1F2DE9F04F844600BF7D
:1031C00000BF00BF00BFDCF80010DCF80420DCF812
:1031D0000830DCF80C40DCF81050DCF81460DCF847
:1031E0001870DCF81C804FF0FF3B87EA0B0088EA80
:1031F0000B0950EA090002D00420BDE8F08F4FF01F
:10320000FF3985EA090086EA090950EA090001D078
:103210000320F2E74FF0FF3983EA090084EA090945
:1032200050EA090001D00220E7E74FF0FF3981EAB8
:10323000090082EA090950EA090001D00120DCE70F
:103240000020DAE770B50A480468001D0568001D13
:103250000668344454B108220649204604F0ABFF06
:10326000042204491031284604F0A5FF70BD000077
:103270009075FF1F62000020F8B504460D4600203F
:10328000009000BF94F85800012801D10220F8BD39
:10329000012084F8580000BF2046FEF705F90646D5
:1032A0008EBBE06D20F4885040F00200E06520689D
:1032B00081681B4A114005F0804242F000421143F0
:1032C000816000BF13E00098401C009015490098F1
:1032D00088420CD3E06D20F0020040F01000E06561
:1032E00000BF002084F8580000BF0120CFE720680D
:1032F0008168C90F0029E6D1E06D20F0020040F09E
:103300000100E06504E0FFE7E06D40F01000E065DB
:1033100000BF002084F8580000BF3046B7E7000027
:10332000C0FFFF3F02DE04002DE9F0439BB00446DE
:103330000E464FF00008306800B100BF00BF94F89F
:103340005800012803D102201BB0BDE8F083012002
:1033500084F8580000BF0020179018902068B0F142
:10336000A04F02D15848009008E058492068884290
:1033700002D15748009001E000200090009850B919
:10338000E06D40F02000E06500BF002084F85800A8
:1033900000BF0120D8E7009804F060FF07462068CE
:1033A00004F05CFF00287DD1002F7FD12068B0F1B0
:1033B000A04F03D044492068884201D1454800E02D
:1033C000454805463068D8B394F83800716841EA3A
:1033D0004030A96821F460410843A8602068B0F13A
:1033E000A04F03D038492068884201D1394800E015
:1033F0003948384988420AD14FF0A04004F01FFFF5
:103400008146314804F01BFF49EA00000DE02F48D7
:1034100004F015FF81462E4804F011FF49EA000927
:103420002E4804F00CFF49EA0000E0BBB1683068A8
:103430000843A96840F61F7291430843A8603BE027
:10344000FFE7A86820F46040A8602068B0F1A04FB2
:1034500003D01D492068884201D11E4800E01E4863
:103460001C4988420AD14FF0A04004F0E8FE814692
:10347000154804F0E4FE49EA00000DE0134804F0AA
:10348000DEFE8146124804F0DAFE49EA00091348DC
:1034900004F0D5FE49EA000028B9A86840F61F717B
:1034A000884301E002E007E0A86005E0E06D40F03D
:1034B0002000E0654FF0010800BF002084F85800AC
:1034C00000BF404640E700000001005000040050EB
:1034D0000005005000030050000700500006005097
:1034E0002DE9F0419CB004460E461746206804F0D2
:1034F000B5FE18B102201CB0BDE8F08100BF94F801
:103500005800012801D10220F5E7012084F8580075
:1035100000BF0020189019902068B0F1A04F02D190
:103520003348019008E033492068884202D132488C
:10353000019001E000200190019850B9E06D40F049
:103540002000E06500BF002084F8580000BF012083
:10355000D1E72046FDF7F2FF05461DB901A8FDF7AA
:10356000EDFF0546002D3BD1E06D40F6016188433B
:1035700040F48070E065002020662048616DC862DC
:103580001F48616D08631F48616D48632068B0F192
:10359000A04F03D016492068884201D11A4800E0A4
:1035A0001A4880461C202168086000BF002084F86B
:1035B000580000BF2068406840F010002168486053
:1035C0003B46324608F10C01606D00F0C5FE054631
:1035D000206881680E4A1140091D816000BF04E027
:1035E00000BF002084F8580000BF284683E7000091
:1035F000000100500004005000050050EB130008CB
:103600009B1400087D1400080003005000070050C0
:10361000C0FFFF7F2DE9F84F05460C464FF0000A2A
:1036200000200090FE49E068884200D000E000BF22
:1036300000BF95F85800012802D10220BDE8F88F9C
:10364000012085F8580000BF286804F002FE002819
:103650007DD12968D4E9002001F1300CC0F3012BA1
:103660000CEB8B03D3F800C000F01F0E4FF01F0BC4
:103670000BFA0EFB2CEA0B0C00F01F0BC2F3846E4E
:103680000EFA0BFE4CEA0E0CC3F800C000BF28680F
:1036900004F0DFFD8146286804F0C2FD8046B9F1E0
:1036A000000F64D1B8F1000FFBD1A068B0F1004F5A
:1036B0000AD121680022286804F0DEFD4FF00041A5
:1036C000286804F0FEFD08E0A2682168286804F07C
:1036D000D3FD0021286804F0F4FD60692968C968F9
:1036E000C1F3C101490000FA01F7206904283FD065
:1036F00028682268216900F1600C0CEB8103D3F883
:1037000000C0DFF820B30CEA0B0C02F0F84B4BF0D2
:10371000004B4BEA070B4CEA0B0CC3F800C000BF90
:103720002868A269216900F1600C0CEB8103D3F8D1
:1037300000C02CF0807C4CEA020CC3F800C000BF33
:103740002868227F2169012A02D1520601E0F6E1B0
:103750000022134600F1600C0CEB8102D2F800C08D
:103760002CF0007C4CEA030CC2F800C000BFA7E0BC
:103770000021286804F04BFDC0F3120030B900218D
:10378000286804F044FDC0F3846007E00021286845
:1037900004F03DFD90FAA0F0B0FA80F02168C1F38A
:1037A000120119B92168C1F3846104E0216891FA1A
:1037B000A1F1B1FA81F1884204D1002211462868B2
:1037C00004F074FD0121286804F021FDC0F312000B
:1037D00030B90121286804F01AFDC0F3846007E0C5
:1037E0000121286804F013FD90FAA0F0B0FA80F0EF
:1037F0002168C1F3120119B92168C1F3846104E0A1
:10380000216891FAA1F1B1FA81F1884204D1002234
:103810000121286804F04AFD0221286804F0F7FC21
:10382000C0F3120030B90221286804F0F0FCC0F3A4
:10383000846007E00221286804F0E9FC90FAA0F017
:10384000B0FA80F02168C1F3120119B92168C1F3FF
:10385000846104E0216891FAA1F1B1FA81F1884212
:1038600004D100220221286804F020FD03212868E9
:1038700004F0CDFCC0F3120030B90321286804F035
:10388000C6FCC0F3846007E00321286804F0BFFC95
:1038900090FAA0F0B0FA80F02168C1F3120119B9D2
:1038A0002168C1F3846104E0216891FAA1F1B1FAC1
:1038B00081F1884204D100220321286804F0F6FC3B
:1038C000286804F0B7FC002870D12868E2682168F5
:1038D000D0F8B0C0C1F312032CEA030C02F0180BAD
:1038E000514B23FA0BF30B404CEA030CC0F8B0C069
:1038F00000BF4B49E068884258D12368C3F31203E4
:103900001BB92368C3F3846304E0236893FAA3F329
:10391000B3FA83F35B1C03F01F03092B3ED8236823
:10392000C3F312031BB92368C3F3846304E0236861
:1039300093FAA3F3B3FA83F35B1C03F01F034FF076
:10394000010C0CFA03FC2368C3F312031BB92368B0
:10395000C3F3846304E0236893FAA3F3B3FA83F315
:103960005B1C03F01F034CEA836C2368C3F3120350
:103970001BB92368C3F3846304E0236893FAA3F3B9
:10398000B3FA83F35B1C03F01F0303EB43034FF015
:10399000000B4BEA03534CEA03033FE02368C3F3F5
:1039A000120323B92368C3F3846305E042E023686C
:1039B00093FAA3F3B3FA83F35B1C03F01F034FF0F6
:1039C000010C0CFA03FC2368C3F312031BB9236830
:1039D000C3F3846304E0236893FAA3F3B3FA83F395
:1039E0005B1C03F01F034CEA836C2368C3F31203D0
:1039F0001BB92368C3F3846304E0236893FAA3F339
:103A0000B3FA83F35B1C03F01F030A3B03EB43038E
:103A10004FF0007B4BEA03534CEA0303194605E0E1
:103A200000007F4000F0FF03FFFF0700A268286846
:103A300004F022FC484920680840002842D0296848
:103A4000B1F1A04F03D0454A2968914201D14449C0
:103A500000E04449084604F0D5FB06464249206888
:103A6000884203D04149206888422CD106F40000E6
:103A700048BB2868B0F1A04F03D03D492868884270
:103A800063D12A68B2F1A04F03D0344B2A689A421E
:103A900001D1334A00E0334A104646F4000104F0F5
:103AA000FFFB344800683449B0FBF1F0401C00EBE8
:103AB00040008000009002E00098401E00900098B6
:103AC0000028F9D141E02D49206888421BD106F039
:103AD0008070C0B921492868884203D128492868E4
:103AE000884232D02A68B2F1A04F03D01B4B2A681B
:103AF0009A4201D11A4A00E01A4A104646F08071F3
:103B000004F0CEFB21E01F49206888421DD106F455
:103B10008000D0B911492868884216D02A68B2F1CD
:103B2000A04F03D00B462A689A4201D10C4A00E00C
:103B30000C4A104646F4800104F0B2FB05E0E86D43
:103B400040F02000E8654FF0010A00BF002085F832
:103B5000580000BF504671E5000008800001005089
:103B60000003005000070050000021C31000C09067
:103B700000060050BC000020400D0300000052C7AA
:103B800000050050000084CB7047000002498842C5
:103B900000D1704700BFFCE780070020704700009D
:103BA0002DE9F84304464FF000080020009014B9B6
:103BB0000120BDE8F883606920B194F82400012851
:103BC00000D100BFE06D30B9204600F045F900207B
:103BD000206684F8580020688168C1F3407131B1D3
:103BE00020688168914A1140816000BF00BF206851
:103BF00004F02AFBB0B9206881688D4A114041F079
:103C00008051816000BF8B4800688B49B0FBF1F0A8
:103C1000401C4000009002E00098401E0090009878
:103C20000028F9D1206804F00FFB48B9E06D40F09E
:103C30001000E065206E40F0010020664FF00108A2
:103C4000206804F006FB0646E06D00F01000002836
:103C50007ED1002EFCD1E06D20F4807040F0020097
:103C6000E065206804F0E6FA88BB2068B0F1A04F58
:103C700003D072492068884201D1714800E0714840
:103C80006F4988420AD14FF0A04004F0D3FA814630
:103C90006A4804F0CFFA49EA00000DE06A4804F0EF
:103CA000C9FA8146694804F0C5FA49EA000968483A
:103CB00004F0C0FA49EA000048B92268B2F1A04F06
:103CC00003D05E4B22689A4202D15D4A01E009E0CE
:103CD0005C4A10466168826822F47C120A43826062
:103CE00000BF00BF607FE16B41EA4030E1680843FC
:103CF000A168084394F8241040EA014594F8240090
:103D0000012803D1208D401E45EA4045E06A28B1D4
:103D1000A08D00F47870216B084305432068C068CB
:103D20004C49084028432168C8602068006920F099
:103D30004060616B084321680861206804F070FAF4
:103D40000746EEBBE7BB207F002141EA803100E05F
:103D500064E094F8380041EA40052068C06844F205
:103D60000201884328432168C860206980B1206827
:103D7000006940F48030216808612068D0F8C000F4
:103D80006FF30D00216908432168C1F8C0000DE000
:103D90002068006920F48030216808612068D0F82C
:103DA000C0006FF30D002168C1F8C00094F8400016
:103DB000012813D1606C40F00101A06C084300E0C1
:103DC00012E0E16C0843216D08432168096940F263
:103DD000FC72914308432168086105E0206800698E
:103DE00020F00100216808616069012809D120687C
:103DF000006B20F00F00216A491E08432168086308
:103E000005E02068006B20F00F0021680863E06D7A
:103E100020F0020040F00100E06505E0E06D40F0B8
:103E20001000E0654FF001084046C2E6C0FFFF5FAA
:103E3000C0FFFF7FBC000020400D030000010050C8
:103E4000000300500007005000040050000500501F
:103E5000000600500740F0FF10B59CB00446142146
:103E600017A8FCF795FA542102A8FCF791FA2068EC
:103E7000B0F1A04F7DD14FF4004002908003139029
:103E800002A801F025FE08B1FEF725FD754800687F
:103E9000401C744908600846006801280DD100BF25
:103EA0007148C06C40F400506F49C8640846C06C4B
:103EB00000F40050019000BF00BF00BF6A48C06C12
:103EC00040F004006849C8640846C06C00F0040073
:103ED000019000BF00BF00BF0846C06C40F0010069
:103EE000C8640846C06C00F00100019000BF00BF2C
:103EF00000BF0846C06C40F00200C8640846C06CB1
:103F000000F00200019000BF00BF022017900320C4
:103F100018900020199017A9544800F009FC0D20B2
:103F20001790032018900020199017A94FF0904087
:103F300000F0FEFB41F202001790032018900020D1
:103F4000199017A94A4800F0F3FB4A484A4908600B
:103F500005204860002148488160C16080210161DE
:103F600089004161890081612021C16109020162EA
:103F700000E009E000F088F908B1FEF7ACFC00BFF2
:103F80003D48606584626BE03C492068884267D1A7
:103F9000C00102908003139002A801F099FD08B1BE
:103FA000FEF799FC2F480068401C2E49086008461F
:103FB000006801280DD100BF2B48C06C40F40050B0
:103FC0002949C8640846C06C00F40050019000BF45
:103FD00000BF00BF2448C06C40F004002249C86400
:103FE0000846C06C00F00400019000BF00BF00BF95
:103FF0000846C06C40F00100C8640846C06C00F080
:104000000100019000BF00BF00BF0846C06C40F037
:104010000200C8640846C06C00F00200019000BFB6
:1040200000BF35201790032018900020199017A981
:104030000E4800F07DFB022017900320189000200E
:10404000199017A94FF0904000F072FB04201790D0
:10405000032018900020199017A9054800F068FB6C
:104060001CB010BD240000200010024000080048D1
:1040700000040048300002405808002000010050B1
:104080000146002091F82520022A03D00422CA63A9
:10409000012027E00A68126822F00E020B681A60FD
:1040A0008A6C126822F480728B6C1A600A6812683B
:1040B00022F001020B681A6091F8442002F01F03FD
:1040C00001229A400B6C5A60D1E913325A604A6D52
:1040D00042B14A6D126822F480724B6D1A60D1E9C8
:1040E00016325A60012281F8252000BF002281F893
:1040F000242000BF704770B50446002594F82500C1
:1041000002280BD00420E063012084F8250000BFC2
:10411000002084F8240000BF012534E020680068F6
:1041200020F00E00216808602068006820F001007F
:1041300021680860A06C006820F48070A16C0860A1
:1041400094F8440000F01F0101208840216C486071
:10415000D4E913104860606D40B1606D006820F4D0
:104160008070616D0860D4E916104860012084F801
:10417000250000BF002084F8240000BFA06B10B110
:104180002046A16B8847284670BD70B50446206C58
:1041900005682068066894F8440000F01F010420B8
:1041A00088402840E0B106F00400C8B120680068EB
:1041B00000F0200028B92068006820F00400216881
:1041C000086094F8440000F01F0104208840216C2E
:1041D0004860206B002856D02046216B884752E06B
:1041E00094F8440000F01F0102208840284018B3D2
:1041F00006F0020000B32068006800F0200040B91B
:104200002068006820F00A0021680860012084F816
:10421000250094F8440000F01F0102208840216C22
:10422000486000BF002084F8240000BFE06A50B35B
:104230002046E16A884726E094F8440000F01F0118
:10424000082088402840F0B106F00800D8B1206866
:10425000006820F00E002168086094F8440000F027
:104260001F0101208840216C48600120E06384F830
:10427000250000BF002084F8240000BF606B10B14F
:104280002046616B884770BD70B504460CB90120AB
:1042900070BD2F49206888420BD22E492068401AF1
:1042A0001421B0FBF1F0800060642A4808382064D3
:1042B0000AE027492068401A1421B0FBF1F0800081
:1042C0006064234808382064022084F825002068B0
:1042D000056847F6F0708543D4E902010843216977
:1042E000084361690843A1690843E1690843216AF9
:1042F00008430543206805602046FDF77DFAA06865
:10430000B0F5804F01D1002060602079A16C086079
:10431000D4E913104860606860B16068042809D867
:104320002046FDF78BFA0020616D0860D4E9161075
:10433000486003E000206065A065E0650020E06360
:10434000012084F82500002084F8240000BF9FE7A6
:1043500008040240080002402DE9F04104460D46E1
:1043600016461F464FF0000800BF94F824000128AD
:1043700002D10220BDE8F081012084F8240000BFB2
:1043800094F8250001283FD1022084F82500002060
:10439000E0632068006820F00100216808603B4667
:1043A000324629462046FDF75BFA206B30B1206883
:1043B000006840F00E00216808600BE0206800688B
:1043C00020F00400216808602068006840F00A00BE
:1043D00021680860A06C006800F4803028B1A06CEF
:1043E000006840F48070A16C0860606D28B1606D59
:1043F000006840F48070616D08602068006840F0DB
:1044000001002168086006E000BF002084F8240055
:1044100000BF4FF002084046ACE700002DE9F04134
:1044200004460F4600BF3C480078012802D1022014
:10443000BDE8F08101203849087000BF4FF47A7060
:10444000FEF704FD0646002E5FD13349486033482D
:10445000006800F4007090B13048006800F480609B
:1044600048B12E48006820F480602C490860032081
:104470002949087715E001202749087711E02748E6
:10448000006800F4806048B12448006820F480602F
:104490002249086002202049087702E000201E49D6
:1044A0000877206801280FD16068FEF745FB4FF4BC
:1044B0007A70FEF7CBFC06461848406948F20401C2
:1044C0008843164948611EE04FF0FF303860A56808
:1044D00013E028466168FEF753FC4FF47A70FEF74C
:1044E000B5FC06460D48406940F2FA3188430B4955
:1044F00048610EB13D6005E06D1CD4E9020108443D
:10450000A842E6D800BFFEF7DBFA00BF0020024950
:10451000087000BF30468BE79C000020002002405E
:1045200010B5044606202060606840B1606801282C
:1045300005D06068022802D06068042809D120688C
:1045400040F00100206004F10C02111F6068FEF7CA
:10455000E1FBFEF7B9FB2061FEF7D4FBA061E06947
:10456000012802D0E069022809D1206840F0080043
:10457000206004F12402111F081FFEF70DFB2068C4
:1045800040F010002060FEF7FFFAA062E06A012808
:1045900002D0E06A022808D1206840F020002060A4
:1045A00004F13001E06AFEF79DFB10BD01200649D1
:1045B000496941F00041044A51611146496901F0DD
:1045C000004101B100207047002002402DE9F04772
:1045D0000446884615461E464FF0000900BF29488C
:1045E0000078012802D10220BDE8F087012025498A
:1045F000087000BF4FF47A70FEF728FC0746002FC2
:1046000038D1204948602048006800F4806048B1F3
:104610001D48006820F480601B4908600220194989
:10462000087702E00020174908773CB92A4633464C
:104630004046FEF7D7FB4FF001090BE0012C01D0FB
:10464000022C07D129464046FEF7E0FB022C01D19F
:104650004FF480294FF47A70FEF7F8FB0746B9F162
:10466000000F05D00848406920EA09000649486162
:10467000FEF726FA00BF00200249087000BF384646
:10468000B2E700009C000020002002400020084902
:10469000496901F0004151B10649054A9160064956
:1046A00091601146496901F0004101B10120704754
:1046B0000020024023016745AB89EFCD10B50446C9
:1046C000402C11D0802C09D0B4F5807F1AD1DFEDB9
:1046D0000E0AB6EE000A10F0CDFD13E001210B48E2
:1046E000006815F077FF0DE009480079022803D132
:1046F000002014F079FF04E00120054948710220F0
:10470000087100BF00BF10BD00007A440000002007
:104710006C25002010B5044604480068204020B1F4
:10472000024804602046FFF7C9FF10BD1404014091
:1047300078B502460B460021CAE001268E401D686E
:1047400005EA0604002C73D01D7905F00305012D40
:1047500004D01D7905F00305022D13D190684E0099
:104760000325B540A8434E00DD68B540284390605E
:10477000506801258D40A8431D79C5F300158D4073
:10478000284350601D7905F00305032D09D0D0683A
:104790004E000325B540A8434E009D68B540284310
:1047A000D0601D7905F00305022D13D1CE0802F16A
:1047B000200555F826004D07EE0E0F25B540A843FD
:1047C0004E07F60E1D69B5402843CE0802F12005BC
:1047D00045F8260010684E000325B540A8431D7912
:1047E00005F003054E00B540284310605D6805F4F0
:1047F0004035002D6BD000BF384D2D6E45F00105C2
:10480000364E356635462D6E05F00105009500BF24
:1048100000BF4FEAB6358E0855F826008D072E0FDB
:104820000F25B540A843B2F1904F02D100251AE000
:104830004DE02B4DAA4201D1012514E0294DAA4299
:1048400001D102250FE0284DAA4201D103250AE03B
:10485000264DAA4201D1042505E0254DAA4201D1E9
:10486000052500E006258E07360FB5402843214D6B
:104870008E0845F82600204D2868A0435D6805F4A1
:10488000801505B120431C4D28602D1D2868A043CC
:104890005D6805F4001505B12043174D2D1D2860F6
:1048A000154D2D1F2868A0435D6805F4003505B13E
:1048B0002043114D2D1F28602D1F2868A0435D68DF
:1048C00005F4803505B120430B4D083D2860491C97
:1048D0001D68CD40002D7FF430AF78BD0010024040
:1048E0000004004800080048000C00480010004880
:1048F0000014004808000140080401400246136902
:104900000B400BB1012000E0002070470AB181612B
:1049100000E08162704700000148006870470000B5
:1049200090000020034800680349096808440149D1
:1049300008607047900000209800002010B5002407
:10494000032000F0D1F80F2000F008F808B101248E
:1049500001E000F051F8204610BD0000F0B587B02E
:1049600004460026002700BF1E48806D40F010005E
:104970001C4988650846806D00F01000009000BF5B
:1049800000BF01A902A801F0C1FB01F0E7FB064648
:104990001548B6FBF0F0471E14481549086040F270
:1049A000E7311348C160476000210161816002F076
:1049B00010FA054695B90E4802F0DAFA05466DB9C7
:1049C000362000F03FF8102C07D200222146362076
:1049D00000F04CF80748046000E00125284607B0C5
:1049E000F0BD00000010024040420F0000100040E7
:1049F000540B00209400002008B500BF1048006E42
:104A000040F001000E4908660846006E00F0010003
:104A1000009000BF00BF00BF0846806D40F080508E
:104A200088650846806D00F08050009000BF00BF90
:104A300000220F21901E00F019F801F03FF808BD88
:104A4000001002400146084600280DDB00BF00BFF1
:104A500000F01F0301229A4043099B0003F1E02369
:104A6000C3F8002100BF00BF00BF70472DE9F05F11
:104A700080460D46164608F00DFB074639462A4685
:104A8000334601F00700C0F1070ABAF1040F02D95A
:104A90004FF0040A01E0C0F1070AD14600F1040A10
:104AA000BAF1070F02D24FF0000A01E0A0F1030AA9
:104AB000D4464FF0010A0AFA09FAAAF1010A0AEAF1
:104AC000020A0AFA0CFA4FF0010B0BFA0CFBABF1DD
:104AD000010B0BEA030B4AEA0B042146404608F09F
:104AE000E1FABDE8F09F000000BF00F00702064BAE
:104AF00019684FF6FF031940044B0B4343EA0221A8
:104B0000014B196000BF70470CED00E00000FA0592
:104B1000024611680120C2F8D002002082F8C802C3
:104B200031F8540F40F001000880088840F002007E
:104B300021F854090020704770B504460D4615B1A0
:104B4000012D1CD10EE0607A38B104F0F4FE0D485E
:104B5000006820F006000B490860D4F8D80206F07F
:104B600075FD0CE0D4F8D80206F005FE607A28B195
:104B70000448006840F006000249086000BF00BF1A
:104B800070BD000010ED00E070B505460C4604F065
:104B90008000802808D104F0070000EB800605F1B2
:104BA000100000EBC60105E004EB840605F5A870D3
:104BB00000EBC6011AB900200873CB8004E0012085
:104BC00008730B81180C4881002070BD70B5044635
:104BD0000D4605EB850304F1100101EBC3014A69A1
:104BE0002946D4F8D80206F0A9FB70BD70B504467A
:104BF0000D4605EB850304F5A87101EBC3014A6975
:104C00002946D4F8D80206F00AFC70BD70B50446F7
:104C10000E4606F0800080280AD106F0070000EB5F
:104C2000800104F1100000EBC1050120687009E06B
:104C300006F0070000EB800104F5A87000EBC10549
:104C40000020687006F00700287000BF94F89002FA
:104C5000012801D1022070BD012084F8900200BF1C
:104C60002946206807F080FB00BF002084F89002EE
:104C700000BF00BFEFE770B504460E4606F00F0018
:104C80002179884201D9012070BD06F0800080287A
:104C90000AD106F0070000EB800104F1100000EBE0
:104CA000C1050120687009E006F0070000EB8001F3
:104CB00004F5A87000EBC105002068700020A87002
:104CC00006F00700287000BF94F89002012801D177
:104CD0000220D9E7012084F8900200BF294620680D
:104CE00007F09DFC00BF002084F8900200BF00BFC9
:104CF000CAE72DE9F04105460C46174607F4804007
:104D000000284FD02868B0F85010207801EBC00080
:104D1000801C296801F58061405AC0F30906A0692A
:104D2000B04203D3A069801BA06101E00020A06114
:104D3000A069A8B900BF22785200296831F8121082
:104D40004BF68F7201EA020080F4005040F40041FB
:104D500041F0800123785B002A6822F8131000BF1D
:104D600007F04000A8B100BF00BF227852002968B8
:104D700031F8121048F68F7201EA020040F4004147
:104D800041F0C00123785B002A6822F8131000BFAD
:104D900000BF002E54D0228961693346286808F08C
:104DA0005FF84DE02868B0F85010207801EBC000A3
:104DB000801D296801F58061405AC0F30906A06989
:104DC000B04203D3A069801BA06101E00020A06174
:104DD000A069A8B900BF22785200296831F81210E2
:104DE0004BF68F7201EA020080F4005040F400415B
:104DF00041F0800123785B002A6822F8131000BF7D
:104E000007F04000A8B900BF00BF2278520029680F
:104E100031F8121048F68F7201EA020040F40041A6
:104E200041F0C00123785B002A6822F8131000BF0C
:104E300000BF2EB1628961693346286808F010F816
:104E40003046BDE8F0812DE9F04705460C46904616
:104E500008F0400000287ED02868B0F85010207874
:104E600001EBC000801C296801F58061405AC0F345
:104E70000907A069B84203D9A069C01BA06101E07D
:104E80000020A061A069002866D100BF6078B8B991
:104E900000BF29682A68B2F8502011442278022302
:104EA00003EBC20201F58063D01800BF0288C2F391
:104EB00009020280028842F40042028000BF12E030
:104EC000607801280FD100BF28682A68B2F8502006
:104ED00010442278022303EBC20200F58063D1184C
:104EE00000220A8000BF00BF00BF29686078F8B9BF
:104EF00000BF2B68D5F800C0BCF850C0634494F8DC
:104F000000C04FF0060909EBCC0C03F580690CEBEF
:104F1000090000BFB0F800C0CCF3090CA0F800C035
:104F2000B0F800C04CF4004CA0F800C000BF0FE087
:104F3000607801280CD12868B0F85000014420782E
:104F4000062303EBC00001F58063C2180020108027
:104F500000BFE07801E0CBE037E0022815D100BFC8
:104F600022785200296831F8121048F6BF7201EA1F
:104F7000020080F0200040F4004141F080012378DD
:104F80005B002A6822F8131000BF21782846FFF73B
:104F90001DFE08F48040A8B100BF00BF2278520077
:104FA000296831F8121048F68F7201EA020040F4C5
:104FB000004141F4814123785B002A6822F81310F4
:104FC00000BF00BF0020BDE8F08708F48040A8B112
:104FD00000BF00BF22785200296831F8121048F64D
:104FE0008F7201EA020040F4004141F481412378CC
:104FF0005B002A6822F8131000BF00BF94F8240059
:10500000012874D1606938446061E0693844E06126
:105010002169206A884204D32669206A801B2062A5
:105020000BE0206A20B93E46002084F8240004E00A
:10503000002084F82400266A206200BF6078E0BB6C
:1050400000BF2A682968B1F850100A442178022369
:1050500003EBC10102F580631944084600BF0388D1
:10506000C3F30903038026B9038843F40043038094
:1050700021E03E2E0ED800BF710806F0010303B1F7
:10508000491C03884FF6FF7C0CEA812C43EA0C0391
:10509000038010E000BF710906F01F0303B9491E29
:1050A00003884FF4004C4CEA812C1FFA8CFC43EA35
:1050B0000C03038000BF00BF12E0FFE76078012807
:1050C0000ED100BF28682A68B2F850201044227818
:1050D000022303EBC20200F58063D1180E8000BFEB
:1050E00000BFB3B222896169286807F0E3FE56E188
:1050F0002868B0F85010207801EBC000801D2968A6
:1051000001F58061405AC0F30907A069B84203D392
:10511000A069C01BA06101E00020A061A069002877
:105120007DD100BF6078B8B900BF29682A68B2F89D
:10513000502011442278022303EBC20201F5806360
:10514000D01800BF0288C2F309020280028842F42C
:105150000042028000BF12E0607801280FD100BF3A
:1051600028682A68B2F8502010442278022303EB02
:10517000C20200F58063D11800220A8000BF00BF80
:1051800000BF29686078F8B900BF2B68D5F800C067
:10519000BCF850C0634494F800C04FF0060909EB16
:1051A000CC0C03F580690CEB090000BFB0F800C01F
:1051B000CCF3090CA0F800C0B0F800C04CF4004CCF
:1051C000A0F800C000BF0FE0607801280CD128686B
:1051D000B0F8500001442078062303EBC00001F52D
:1051E0008063C2180020108000BFE078022815D12B
:1051F00000BF22785200296831F8121048F6BF72B9
:1052000001EA020080F0200040F4004141F08001FA
:1052100023785B002A6822F8131000BF00E01EE02C
:1052200021782846FFF7D2FC08F48040A8B900BFD7
:1052300000BF22785200296831F8121048F68F72A8
:1052400001EA020040F4004141F4814123785B000F
:105250002A6822F8131000BF00BF0020B3E608F44C
:105260008040A8B900BF00BF22785200296831F8F9
:10527000121048F68F7201EA020040F4004141F436
:10528000814123785B002A6822F8131000BF00BF19
:1052900094F8240001287ED1606938446061E06997
:1052A0003844E0612169206A884204D32669206A73
:1052B000801B20620BE0206A20B93E46002084F863
:1052C000240004E0266A0020206284F8240000BF45
:1052D0002A68607898BB00BFD5F800C02968B1F88B
:1052E00050108C4421784FF0060909EBC1010CF5F0
:1052F00080694944084600BFB0F80090C9F3090925
:10530000A0F8009036B9B0F8009049F40049A0F830
:1053100000902AE03E2E13D800BF710806F0010964
:10532000B9F1000F00D0491CB0F800904FF6FF7A99
:105330000AEA812A49EA0A09A0F8009015E016E075
:1053400000BF710906F01F09B9F1000F00D1491E15
:10535000B0F800904FF4004A4AEA812A1FFA8AFA0C
:1053600049EA0A09A0F8009000BF00BF0EE060788B
:1053700001280BD12868B0F850000244207806219B
:1053800001EBC00002F5806143181E8000BFB3B27C
:105390006289616900E002E0286807F08BFD00BFC8
:1053A00022785200296831F8121048F6BF7201EADB
:1053B000020080F0100080F0200040F4004141F035
:1053C000800223785B00296821F8132000BF0020A9
:1053D000F9E5024601F0070000EB800302F5A87032
:1053E00000EBC300C06970472DE9F04705460E4643
:1053F00090461F464FF0000906F0800080280AD131
:1054000006F0070000EB800105F1100000EBC1047D
:105410000120607009E006F0070000EB800105F54F
:10542000A87000EBC1040020607006F00700207037
:10543000C8F30A002061E770022F01D1002020711B
:1054400000BF95F89002012802D10220BDE8F08744
:10545000012085F8900200BF2146286806F060FC14
:1054600000BF002085F8900200BF4846EEE72DE916
:10547000F04105460E461746984606F0070000EB39
:10548000800105F5A87000EBC1046761C4F81880BD
:105490000020E061607006F0070020702146286857
:1054A00007F055F90020BDE8F08170B504460E46BE
:1054B00006F007002179884201D9012070BD06F06D
:1054C000800080280AD106F0070000EB800104F17B
:1054D000100000EBC1050120687007E006EB8601B3
:1054E00004F5A87000EBC105002068700120A870C9
:1054F00006F00700287000BF94F89002012801D13F
:105500000220DBE7012084F8900200BF29462068D2
:1055100007F0EFF800BF002084F8900200BF00BF42
:10552000CCE72DE9F04105460E4690461F4606F0B1
:10553000070000EB800105F1100000EBC104C4F886
:105540001480A761012084F8240027620020E06114
:105550000120607006F0070020702146286807F0DF
:10556000F6F80020BDE8F08170B50446206807F029
:1055700073FC054605F40040B0F5004F03D120460A
:1055800003F07AFA70BD05F48060B0F5806F10D139
:105590002068B0F844004FF6FF3108402168A1F8B8
:1055A0004400204600F082F90021204600F0ABF9CB
:1055B000E8E705F48040B0F5804F09D12068B0F8E5
:1055C00044004BF6FF7108402168A1F84400D9E778
:1055D00005F40050B0F5005F09D12068B0F8440030
:1055E0004DF6FF7108402168A1F84400CAE705F4B0
:1055F0008050B0F5805F29D12068B0F840004FF6A8
:10560000FB7108402168A1F840002068B0F8400014
:105610004FF6F77108402168A1F8400094F8C802DD
:10562000012806D1002084F8C80200212046FFF797
:1056300083FA204600F04CF92068B0F844004EF69A
:10564000FF7108402168A1F844009BE705F4006061
:10565000B0F5006F1CD12068B0F8400040F00800A1
:105660002168A1F840002068B0F844004FF2FF71B3
:1056700008402168A1F844002068B0F8400040F0DC
:1056800004002168A1F84000204600F079F979E78C
:1056900005F0800080282FD12068B0F844004FF634
:1056A0007F7108402168A1F8440094F8C802F8B955
:1056B0002068B0F8400040F004002168A1F84000E4
:1056C0002068B0F8400040F008002168A1F84000D0
:1056D000012084F8C8022068B0F8540000F0F000FF
:1056E0008008C4F8CC0201212046FFF725FA02E029
:1056F000204600F045F945E705F40070B0F5007F5D
:105700000CD12068B0F844004FF6FF5108402168E2
:10571000A1F84400204600F0EFF833E705F480706C
:10572000B0F5807F09D12068B0F844004FF6FF61E2
:1057300008402168A1F8440024E700BF22E770B5C3
:1057400004460CB9012070BD94F8910228B90020DC
:1057500084F89002204600F077F8032084F8910244
:10576000206806F052FF00252AE0012105EB8502A2
:1057700004F1100000EBC200417005EB850104F15B
:10578000100000F83150002105EB850200EBC2004B
:10579000C17005EB850204F1100000EBC20001614D
:1057A00005EB850204F1100000EBC200416105EB3E
:1057B000850204F1100000EBC2008161681CC5B2D3
:1057C0002079A842D1DC00252AE0002105EB8502E2
:1057D00004F5A87000EBC200417005EB850104F5EB
:1057E000A87000F83150002105EB850200EBC200E3
:1057F000C17005EB850204F5A87000EBC2000161E1
:1058000005EB850204F5A87000EBC200416105EBD1
:10581000850204F5A87000EBC2008161681CC5B266
:105820002079A842D1DC94E8070006F0E4FE0020CD
:105830002073012084F89102A07A012802D1204629
:10584000FFF766F900207EE710B596B004465421B4
:1058500001A8FAF79DFD1349206888421FD1401422
:1058600001900020109001A800F032F908B1FDF776
:1058700032F800BF0C48806D40F400000A4988658A
:105880000846806D00F40000009000BF00BF0022B9
:1058900005211420FFF7EAF81420FFF7D3F816B01B
:1058A00010BD0000005C00400010024070B50446CE
:1058B00001256079022801D0FDF70DF82946D4F8BA
:1058C000D80205F0E4FED4F8D80205F089FE70BDD8
:1058D00010B50446607A38B10648006820F006002A
:1058E0000449086004F027F8D4F8D80205F0AEFEA9
:1058F00010BD000010ED00E010B50446D4F8D80249
:1059000005F0AFFE10BD70B504460D4600BF94F81B
:105910009002012801D1022070BD012084F890027C
:1059200000BF25732946206807F0BDFA00BF00209C
:1059300084F8900200BF00BFEEE710B5044604F5FE
:105940002671D4F8D80205F0B9FE10BD10B5044692
:1059500000BF94F89002012801D1022010BD01205F
:1059600084F8900200BF206807F064FA206806F00F
:1059700039FE00BF002084F8900200BF00BFEDE7B1
:1059800010B50446D4F8D80205F0F5FE607A28B1C7
:105990000348006840F006000149086010BD00009F
:1059A00010ED00E002468ABB4148006800F4C06088
:1059B000B0F5806F2BD13E488030006820F48070B5
:1059C0003B4BC3F880001846006820F4C06040F4E8
:1059D000007018603748006832235843364BB0FBDC
:1059E000F3F0411C00E0491E3148406900F480603A
:1059F000B0F5806F01D10029F5D12D48406900F440
:105A00008060B0F5806F51D10320704708E02848CE
:105A10008030006820F48070254BC3F8800045E09A
:105A2000B2F5007F3AD12248006800F4C060B0F5BA
:105A3000806F2AD11E488030006840F480701C4B73
:105A4000C3F880001846006820F4C06040F400707D
:105A500018601848006832235843174BB0FBF3F026
:105A6000411C00E0491E1248406900F48060B0F516
:105A7000806F01D10029F5D10D48406900F48060A4
:105A8000B0F5806F12D10320BFE70948803000686D
:105A900040F48070064BC3F8800007E004480068BB
:105AA00020F4C06040F48060014B18600020ACE737
:105AB00000700040BC00002040420F000348806896
:105AC00040F4804001498860704700000070004049
:105AD0002DE9F84304460027B846206800F400206A
