:020000040800F2
:10000000A8120120B102000821720008A3630008B1
:100010001D720008C50C00086FA200080000000057
:10002000000000000000000000000000F1010008D6
:100030006B0E0008000000004D0200085D7F000804
:10004000CB020008CB020008CB020008CB0200085C
:10005000CB020008CB020008CB020008CB0200084C
:10006000CB020008CB020008CB020008990D000863
:10007000A50D0008B10D0008CB020008CB02000856
:10008000CB020008CB020008CB020008CB0200081C
:1000900001A20008CB020008CB0200085D1A00088C
:1000A000CB020008CB020008CB020008CB020008FC
:1000B000CB020008CB020008CB020008CB020008EC
:1000C000CB020008CB020008CB020008CB020008DC
:1000D000CB020008CB020008CB020008BD8B000851
:1000E000CB020008CB020008CB020008CB020008BC
:1000F000CB020008CB020008CB020008CB020008AC
:10010000CB020008CB020008F57F0008CB020008F4
:10011000CB020008CB0200088D800008CB0200084B
:10012000CB020008CB020008CB020008CB0200087B
:10013000CB020008CB020008CB020008CB0200086B
:10014000CB020008CB020008CB020008CB0200085B
:10015000CB020008CB020008CB020008CB0200084B
:10016000CB020008CB020008CB020008CB0200083B
:10017000CB020008CB020008CB020008CB0200082B
:10018000CB020008CB020008CB020008CB0200081B
:10019000CB02000800000000CB020008CB020008E0
:1001A000CB020008CB020008CB020008CB020008FB
:1001B000CB020008CB020008CB020008CB020008EB
:1001C000CB020008CB020008CB020008CB020008DB
:1001D000CB020008CB020008DFF810D000F03CFC96
:1001E0000048004759000108AFF30080A812012021
:1001F0002C4B19680868B0E8F04F80F30988BFF30A
:100200006F8F4FF0000080F31188704700000000EE
:1002100008480068006880F308884FF0000080F309
:10022000148862B661B6BFF34F8FBFF36F8F00DFE4
:1002300000BF00BF08ED00E0DFF80C00016841F4EA
:1002400070010160704700BF88ED00E0EFF30980A6
:10025000BFF36F8F134B1A681EF0100F08BF20ED0D
:10026000108A20E9F04F106009B44FF0500080F37D
:100270001188BFF34F8FBFF36F8F18F0B5F84FF0B1
:10028000000080F3118809BC19680868B0E8F04FD5
:100290001EF0100F08BFB0EC108A80F30988BFF37E
:1002A0006F8F7047E0030020EFF305807047000078
:1002B0000648804706480047FEE7FEE7FEE7FEE700
:1002C000FEE7FEE7FEE7FEE7FEE7FEE7E57F000864
:1002D000D90100082DE9F05F0546002092469B46B3
:1002E00088460646814640241BE02846414647464C
:1002F000224600F02FF853465A46C01A914110D3B7
:1003000011461846224600F016F82D1A67EB010830
:100310004F4622460120002100F00DF817EB00099E
:100320004E41201EA4F10104DFDC484631462A4636
:100330004346BDE8F09F202A04DB203A00FA02F190
:10034000002070479140C2F1200320FA03F31943C3
:1003500090407047202A04DB203A21FA02F0002165
:10036000704721FA02F3D040C2F1200291400843C5
:100370001946704710B5431A934209D2831888185A
:1003800003E010F8011D03F8011D521EF9D210BD43
:1003900040EA01039B0703D009E008C9121F08C007
:1003A000042AFAD203E011F8013B00F8013B521E87
:1003B000F9D210BDD2B201E000F8012B491EFBD2E8
:1003C00070470022F6E710B513460A460446194660
:1003D000FFF7F0FF204610BD421C10F8011B00295A
:1003E000FBD1801A7047034611F8012B00F8012B4E
:1003F000002AF9D1184670472DE9FE4F804681EA60
:100400000300C00F0C46009021F0004123F000458E
:10041000B8EB0200A94105D24046214690461C4651
:100420000B46024623F00040104347D0270DC7F388
:100430000A00C3F30A510290401A019040286BDA77
:10044000C3F3130040F4801B0098924620B10023B0
:10045000D2EB030A63EB0B0B01985946C0F1400243
:100460005046FFF768FF06460D4650465946019A2A
:1004700000F0D5F910EB08006141002487EA115221
:1004800084EAE7731A4340D0009A62B3019A012AC2
:100490004FEA075215DC001B61EB02014FF00042EE
:1004A00002EA0752CDE90042001C41F580113246B4
:1004B0002B4600F035FA03B0BDE8F08F40462146E8
:1004C000F9E7001B61EB0201001C41F580130018E5
:1004D0005B412018A2F5001747EB030140EAD570F5
:1004E000B6196D4111E06D084FEA360645EAC07550
:1004F0004FEA0752001B61EB0201001C41F580111D
:1005000049084FEA30000019514132462B4603B0EA
:10051000BDE8F04F00F0F5B900980122400000233B
:10052000D0EB020263EBE073009821464FEAE074DF
:10053000B8EB000061EB0401E9E783F000435BE7FF
:1005400081F0004158E72DE9FE4F81EA030404F0F1
:10055000004421F0004100944FF0000B23F00043D1
:1005600050EA01045ED052EA03045BD0C3F30A549C
:10057000C1F30A552C44A4F2F3340194A0FB0254B5
:10058000C1F3130141F48011C3F3130343F4801347
:1005900001FB024400FB034E840A970A44EA81549B
:1005A00047EA8357A4FB076802958D0A05FB078578
:1005B0004FEA932C04FB0C542705029D4FEA065882
:1005C00047EA1637B5EB08056EEB070C870E920E5F
:1005D00047EA811742EA8312A7FB0201B6EB0B013F
:1005E00064EB00042B0D43EA0C335E1844EB1C5003
:1005F000DA465146E7FB0201C5F313044FEA0B3319
:1006000043EA14534FEA0432019C43EA0603A4F17F
:100610000C040294009CCDE900B400F081F903B011
:10062000BDE8F08F00200146F9E72DE9F04D81EAA1
:10063000030404F0004B21F0004514464FF0000A7B
:1006400023F0004150EA050220D054EA01021DD0F7
:10065000C5F30A570246C5F31303C1F31300C1F3F0
:100660000A5640F4801543F48013A7EB0608101BCC
:10067000D64608F2FD3873EB050002D308F10108F5
:1006800001E092185B41B8F1000F03DA0020014647
:10069000BDE8F08D00204FF48011064684460EE040
:1006A000171B73EB050705D3121B63EB050306430A
:1006B0004CEA010C49084FEA300092185B4150EABD
:1006C0000107EDD152EA030012D082EA040083EA66
:1006D0000501084305D0101BAB4106D201220023BF
:1006E00006E000224FF0004302E06FF001025310D9
:1006F0001AEB06004CEB085110EB0A0041EB0B0122
:10070000BDE8F04D00F0FDB80EB5C10F80EAE07015
:100710000844CA07002140F233438DE80E000A4620
:100720000B4600F0FDF803B000BD20F00040C20D04
:10073000C0F3160040F400007F2A02DA00200146D0
:1007400070470021962A03DCC2F19602D040704720
:10075000963AFFF7F0BD70B5C1F30A5201F00045BB
:100760000024C1F3130140F2FF3341F480119A4297
:1007700001DA002070BD40F233439A42A2F23342C4
:1007800003DC5242FFF7E6FD00E090402C43F1D03D
:10079000404270BD00F0004230F000400AD0C10D70
:1007A00001F56071C0F3160042EA0151C20840072A
:1007B0001143704700200146704701F0004330B4F8
:1007C00021F0004150EA010206D00A0DA2F5607244
:1007D000C1F31301002A02DC30BC00207047440F33
:1007E00044EAC104C100E01830BC00EBC25000F084
:1007F00028B830B50B46014600202022012409E02C
:1008000021FA02F59D4205D303FA02F5491B04FAC9
:1008100002F52844151EA2F10102F1DC30BD202AA8
:1008200006DBCB17203A41FA02F043EAE07306E018
:1008300041FA02F3D040C2F1200291400843194628
:1008400070470029A8BF7047401C490008BF20F02E
:100850000100704710B4B0FA80FC00FA0CF050EAC6
:10086000010404BF10BC704749B1CCF1200421FA47
:1008700004F411FA0CF118BF012121430843A3EB42
:100880000C01CB1D4FEA00614FEA102042BF00204F
:1008900010BC704700EBC35010440029A4BF10BC2B
:1008A0007047401C490008BF20F0010010BC704791
:1008B000F0B400F0004221F0004120F00040CE0DE5
:1008C000C30DC1F3160141F40001C0F316004C4200
:1008D000154640F40000761E09E010EB440002D5F6
:1008E00082F0004240428842F7D840005B1EB3428B
:1008F000F9DA18B1F0BC0021FFF7ACBF2846F0BC14
:10090000704710B5141E73F1000408DA401C41F161
:10091000000192185B411A4301D120F0010010BD83
:100920002DE9F04D92469B4611B1B1FA81F202E0F9
:10093000B0FA80F220329046FFF7FDFC04460F46E5
:1009400040EA0A0041EA0B0153465A46084313D0D5
:10095000114653EA010019D0C8F140025046FFF792
:10096000F9FC05460E46504659464246FFF7E3FC61
:10097000084305D0012004E020463946BDE8F08D4B
:100980000020054346EAE0762C4337430A98630586
:10099000E40AA0EB08000022FD0A44EA47540A30AA
:1009A00002D500200146E9E7010510196941DDE99A
:1009B000084500196941BDE8F04DA2E7C1F30A52AC
:1009C000C1F3130140F2FF3341F480119A4202DA7D
:1009D00000200146704740F233439A42A2F233426C
:1009E00002DC5242FFF7B6BCFFF7A5BC30B5041ECF
:1009F00071F1000404DB4FF00044404264EB01015C
:100A0000141E73F1000405DB1C464FF000435242F4
:100A100063EB0403994208BF904230BD002801DB1C
:100A2000C0F10040002901DBC1F10041814202D246
:100A30004FF0004004E04FF0005001D14FF0C040B3
:100A40004FEA2062EFF3008162F31F6181F30088B7
:100A50007047002070470000064C074D06E0E06834
:100A600040F0010394E8070098471034AC42F6D3F5
:100A7000FFF7B6FB24D8010844D8010870B58C18DC
:100A800010F8015B15F0070301D110F8013B2A11A2
:100A900006D110F8012B03E010F8016B01F8016B8F
:100AA0005B1EF9D12B0705D40023521E0DD401F88B
:100AB000013BFAE710F8013BCB1A921C03E013F854
:100AC000015B01F8015B521EF9D5A142D8D3002089
:100AD00070BD10B5846AE16D11F0500F06D0E16D64
:100AE000C90625D5204601F07DFE10BDE06D40F41D
:100AF0000070E06520680168090716D505F0DAFF87
:100B000078B12068C068800400280ADBE06D20F41A
:100B10008070E065E06DC00403D4E06D40F001003A
:100B2000E065204601F05CFE10BDC0688007EBE781
:100B3000616D496BBDE81040084710B5806AC16D12
:100B400041F04001C165016E41F00401016601F010
:100B500049FE10BD10B5806A01F043FE10BD0000D3
:100B600070B50446006881688268C1F3400112F0E4
:100B7000010F28D039BB816801F00D01012914D182
:100B80008168124A1140891C816021680320086035
:100B900002F056FC054612E002F052FC401B02280F
:100BA0000DD920688068C00709D0E06D40F01000C2
:100BB000E065206E40F001002066012070BD2068D5
:100BC0008068C007E8D1002070BD0000C0FFFF7F33
:100BD000F8B50446002000902068816811F0010FEC
:100BE0004AD18168254A114237D18168D5432940CD
:100BF000491C81602068B0F1A04F02D02049884292
:100C000001D1204800E02048806800F0E070000238
:100C10000DD51E481E490068B0FBF1F0401C00EBEA
:100C20004000800000E0401E00900028FBD102F050
:100C300007FC06461BE0816811F0010F03D18168B3
:100C40002940491C816002F0FBFB801B02280ED961
:100C500020680068C043C00709D0E06D40F0100074
:100C6000E065206E40F0010020660120F8BD20689C
:100C70000168C943C907DED10020F8BD3F000080EC
:100C8000000100500003005000070050B000002099
:100C9000400D03000148006913F06EBC8003002082
:100CA0000148406A13F068BC800300200148806B53
:100CB00013F062BC800300200148C06C13F05CBCE0
:100CC00080030020FEE700207047002070470000EE
:100CD00010B500220449054808F0F9F80449034812
:100CE00008F0ECF8002010BD706B0020A05E002022
:100CF0007063002010B50C460146064808F0DEF887
:100D0000044808F0A3F804482168006813F060FC68
:100D1000002010BDA05E0020680300200020704766
:100D2000094A10B5D2F8BC22D2F814220AB1012027
:100D300010BD0A460146044808F0C9F8BDE8104055
:100D4000014808F02EB90000A05E0020044A936814
:100D500043F00103936010601180106880B2704707
:100D6000003002400A4808B5816C41F4805181642A
:100D7000806C48F2050100F4805000900548416104
:100D8000816821F0180141F00801816008BD000070
:100D90000010024000300240014801F08ABF00000C
:100DA00098580020014801F084BF0000F858002046
:100DB00010B50021084610F0BBFEBDE81040014808
:100DC00001F077BFF85500200D4902688A4201D230
:100DD0000C4901E00B492031D2B21423083AB2FB8E
:100DE000F3F2436C02F01F0223F003031944816401
:100DF00004498031C16401219140016570470000C0
:100E000008040240000802400179074A02EB81020F
:100E10004265054A4432491E826501F01F020121E4
:100E20009140C16570470000FC08024030B5D0E930
:100E300013456560446D14B1D0E91645656090F8BE
:100E4000444004F01F050124AC40056C6C6004684C
:100E500063608368102B036803D099600068C260E8
:100E600030BD9A600068C16030BD70472DE9F05F09
:100E7000404D4FF6FF704FF400262988814201D182
:100E8000314601E00904890949084FF48027B7FB7E
:100E9000F1F201FB1271CC0A4FF0006B80464FF06B
:100EA000100920E0814201D1314603E04FEA0141BF
:100EB0004FEA91114FEA5102B7FBF2F1BA4601D164
:100EC000304605E02B4800884FEA00404FEA90107A
:100ED0004FEA50020BEBC42001FB020001F0B0F816
:100EE000042806D0083429884046814234D132464D
:100EF00034E0651CB146EF1D1E4E1FE031884145B0
:100F000001D1484603E04FEA01404FEA90104FEA12
:100F10005001BAFBF1F101D1484604E030884FEAB4
:100F200000404FEA90104FEA50020BEBC52001FB46
:100F3000020001F085F8042819D16D1CBD42DDD3F3
:100F40000821204600F00AFE10B10120BDE8F09F04
:100F500000F098FD0020F9E70A0492095208B7FB57
:100F6000F2F302FB137309EBD322A2429AD80520B5
:100F7000ECE70000E075FF1F00F0A8BD2DE9F04789
:100F8000824600F093FD10B10E20BDE8F087404C82
:100F90004FF6FF704FF400272188814201D1394676
:100FA00001E00904890949084FF48025B5FBF1F2F5
:100FB00001FB1251CE0A4FF0100980462EE000BF0F
:100FC000BAF1000F03D0414509D138460BE04FF08C
:100FD0000101304600F0C2FDF8B10120D5E74FEA2B
:100FE00001404FEA90104FEA5000B5FBF0F101D1FB
:100FF000384604E020884FEA00404FEA90104FF056
:1010000000624FEA500002EBC62201FB00204FF4C1
:10101000006109F02DF91028D9D0761C21884145AE
:1010200001D13A4601E00A0492095208B5FBF2F3F5
:1010300002FB135309EBD322B242C1D800F022FDC8
:1010400020884646B04201D1384601E000048009BC
:101050004008B5FBF0F100FB1150C00A022106F078
:1010600037FE08B1022090E70A480021418021881C
:10107000B14201D009048F097908B5FBF1F201FBF7
:101080001251C90A01702021416000207DE7000053
:10109000E075FF1FD00300202DE9F14F002482B03E
:1010A000A2460094A346019400F000FD10B10E206A
:1010B000BDE8FE8FFFF756FEFC4D01206870FC482E
:1010C0004FF400270288A2F57F43FF3B0DD01104A7
:1010D00089094FF480264908B6FBF1FC01FB1C612D
:1010E000C90A4FF00069B64631E03946F1E79A4245
:1010F00001D13B4604E003884FEA03434FEA9313D0
:101100004FEA5303BEFBF3F301D1384604E00088F5
:101110004FEA00404FEA90104FEA500509EBC1201A
:1011200003FB0503E14D4FF000004FF4006600BFE4
:1011300003EB000CC5F808C003EB000CDCF80080E2
:10114000DCF804C000F10800B042F1D3491CD848D3
:101150004FF6FF739A4201D13D4602E005882D0407
:10116000AD096E08BEFBF6FC754606FB1C564FF03B
:10117000100808EBD6268E42B9D8CC480021417021
:10118000CB48A2F57F43FF3B09D0018809048909B8
:101190004A08B5FBF2F502FB15E2D50A2CE0394608
:1011A000F6E78B4201D1394603E04FEA03414FEAAB
:1011B00091114FEA5101B2FBF1F101D1384603E040
:1011C0004FEA03404FEA90104FEA500209EBC52066
:1011D00001FB020000F034FF022804D0012802D0F5
:1011E000032802D007E0641C05E0009800B90195CF
:1011F000401CAA4600906D1CAD484FF6FF71038855
:101200008B4201D13A4601E01A04920956084FF484
:101210008022B2FBF6FC06FB1C2608EBD626AE426B
:10122000BFD88CBB009880B3A14C4FF6FF702188CB
:10123000814201D1394603E04FEA01414FEA911161
:101240004FEA51014FF48025B5FBF1F201FB125238
:101250000199A1EBD221A1F1010101F00F0201D10D
:10126000394604E021884FEA01414FEA91114FEAE3
:101270005101B5FBF1F301FB135102EBD12209EB54
:10128000C22203D1394606E045E045E021884FEA15
:1012900001414FEA91114FEA5101B5FBF1F10646C8
:1012A00001D1384604E020884FEA00404FEA901010
:1012B0004FEA500001FB002000F0C2FE042830D1AC
:1012C0002188B14201D1384603E04FEA01404FEA9C
:1012D00090104FEA5001B5FBF1F001FB1051AAEB61
:1012E000D12000F1010000F00F0101D1384604E0E7
:1012F00020884FEA00404FEA90104FEA5000B5FBBB
:10130000F0F200FB125001EBD0204FF0010106F08B
:10131000DFFC002873D104E0BDE8FE4F0020FFF79A
:101320002DBE63490A88A2F57F40FF380BD0120416
:10133000920953084FF48022B2FBF3F403FB142309
:10134000DC0A1546CFE03A46F3E78A4201D13A4635
:1013500003E04FEA02424FEA92124FEA5202B5FB13
:10136000F2F2064601D1384604E030884FEA0040E8
:101370004FEA90104FEA500109EBC42002FB010034
:1013800000F05EFE012866D132884FF6FF713046CC
:101390008A4201D13B4601E013049B095B08B5FB7F
:1013A000F3F603FB1653B4EBD32F55D08A4201D189
:1013B0003B4602E003881B049B095B08B5FBF3F680
:1013C00003FB1656082303EBD623A34244D08A42DC
:1013D00001D1394604E001884FEA01414FEA9111F9
:1013E0004FEA5101B5FBF1F201FB1251A4EBD121FF
:1013F000A1F1010101F00F0202D1394605E032E20C
:1014000001884FEA01414FEA91114FEA5101B5FBC2
:10141000F1F301FB135102EBD12209EBC22101D1FF
:101420003A4604E002884FEA02424FEA92124FEA3B
:101430005202B5FBF2F201D1384604E000884FEACF
:1014400000404FEA90104FEA500002FB001000F0FD
:10145000F7FD03284FD045E08A4201D1394604E028
:1014600001884FEA01414FEA91114FEA5101B5FB62
:10147000F1F201FB1251A4EBD12101F1010101F0C4
:101480000F0101D13A4604E002884FEA02424FEAD6
:1014900092124FEA5202B5FBF2F302FB135201EB38
:1014A000D22209EBC22205D1394608E0D003002040
:1014B000E075FF1F01884FEA01414FEA91114FEAA1
:1014C0005101B5FBF1F101D1384604E000884FEA43
:1014D00000404FEA90104FEA500001FB002000F05E
:1014E000AFFD40B1641CFD484FF6FF7102888A428F
:1014F00010D13B4610E0FA48002101220470084652
:1015000006F068F8B0F5807F01D00C20D0E54FF0F0
:10151000010B0BE013049B095E08B5FBF6F306FB19
:10152000135308EBD323A3423FF60FAFEB4C00203D
:10153000009021884FF6FF70814201D1394601E0C9
:10154000090489094908B5FBF1F201FB1251CE0AE1
:101550008046CEE0414501D1394603E04FEA0141E2
:101560004FEA91114FEA5101B5FBF1F101D1384633
:1015700004E020884FEA00404FEA90104FEA500202
:1015800009EBC62001FB020000F05AFD022802D040
:1015900003287AD0ACE021884046814201D13A4606
:1015A00001E00A0492095208B5FBF2F302FB135260
:1015B000B6EBD22F52D0814201D13A4601E00A0463
:1015C00092095208B5FBF2F302FB1353082202EB17
:1015D000D322B24242D0414501D1384603E04FEA1E
:1015E00001404FEA90104FEA5000B5FBF0F100FBCC
:1015F0001150A6EBD020A0F1010000F00F0101D1A5
:10160000384604E020884FEA00404FEA90104FEA45
:101610005000B5FBF0F200FB125001EBD02009EBBB
:10162000C02101D1384604E020884FEA00404FEA4B
:1016300090104FEA5000B5FBF0F201D1384604E0BB
:1016400020884FEA00404FEA90104FEA500002FB1A
:10165000001000F0F5FC032842D049E0414501D1DB
:10166000384603E04FEA01404FEA90104FEA50003D
:10167000B5FBF0F100FB1150A6EBD02000F101000A
:1016800000F00F0102D1384605E030E020884FEA33
:1016900000404FEA90104FEA5000B5FBF0F200FB1B
:1016A000125001EBD02109EBC12101D1384604E0F1
:1016B00020884FEA00404FEA90104FEA5000B5FBF7
:1016C000F0F201D1384604E020884FEA00404FEAAA
:1016D00090104FEA500002FB001000F0B1FC38B946
:1016E000009898BB7E4806700120009000E0B2464A
:1016F000761C2188414501D1384601E00804800963
:101700004008B5FBF0F200FB1252102000EBD22093
:10171000B0423FF61FAF009878BB8AB2424501D174
:10172000394603E04FEA02414FEA91114FEA510274
:10173000B5FBF2F3294602FB1313AAEBD32202F105
:10174000010202F00F0202D1384605E09BE020883A
:101750004FEA00404FEA90104FEA5000B1FBF0F31F
:1017600000FB13505E4902EBD020C0B208704FF06E
:10177000020106F0ADFA002875D1594900208A46C9
:101780004880202048600E78238841468B4201D152
:101790003A4604E022884FEA02424FEA92124FEAA8
:1017A0005202B5FBF2F201D1BC4605E0B4F800C02C
:1017B0004FEA0C4C4FEA9C1C4FEA5C0C02FB0CF20B
:1017C00002EBC62C00F100629444DCF80020DCF847
:1017D00004C06FEA020272EA0C020FD0BAF802C02B
:1017E00008300CF1010CAAF802C0DAF804C0B0F518
:1017F000006F0CF1080CCAF804C0C7D3CA4648E011
:10180000414501D1384603E04FEA01404FEA9010CC
:101810004FEA5000B5FBF0F100FB1150A3EBD020D4
:10182000A0F1010000F00F0001D1394604E0218849
:101830004FEA01414FEA91114FEA5101B5FBF1F234
:1018400001FB125100EBD12601D1384604E020887B
:101850004FEA00404FEA90104FEA5000B5FBF0F11C
:1018600002D1384605E0D9E020884FEA00404FEA2F
:1018700090104FEA50020AEBC62001FB020000F074
:10188000DFFB032801D00A2012E415484188FC310F
:10189000418021884046814201D13A4601E00A0454
:1018A00092095208B5FBF2F302FB1352B6EBD22FAA
:1018B00010D0814201D13A4601E00A04920952084F
:1018C000B5FBF2F302FB1353082202EBD32233469B
:1018D000B24295D189B2414506D103E0E075FF1FC0
:1018E000D0030020394603E04FEA01414FEA91114D
:1018F0004FEA5101B5FBF1F201FB12524949097857
:10190000A1EBD22101F1010101F00F0201D1394611
:1019100004E021884FEA01414FEA91114FEA510159
:10192000B5FBF1F301FB135102EBD12801D139468C
:1019300004E021884FEA01414FEA91114FEA510238
:10194000B5FBF2F1A94601D1384604E020884FEA00
:1019500000404FEA90104FEA500255464CE0029981
:1019600029B14FF4006108F083FC102806D1012151
:10197000404600F0F3F808B10120C7E521884FF692
:10198000FF70814201D1384603E04FEA01404FEA3F
:1019900090104FEA5002B9FBF2F1484602FB1101E8
:1019A000A8EBD12101F1010101F00F0201D139466B
:1019B00004E021884FEA01414FEA91114FEA5101B9
:1019C000B0FBF1F301FB130102EBD12801D1394641
:1019D00004E021884FEA01414FEA91114FEA510199
:1019E000B9FBF1F101D1384604E020884FEA00400C
:1019F0004FEA90104FEA500205EBC82001FB0200AD
:101A0000B045ACD100F03EF8BBF1000F08D1002189
:101A1000084608F03FFC18B1122801D0022075E5F5
:101A2000002073E5D003002038B50C4658B1A0F56E
:101A30007F41FF3907D000210091694605F0ACFFD6
:101A40000099218038BD082038BD28B1A0F57F421B
:101A5000FF3A01D008F078BC0820704710B540204C
:101A600001F0B4FB802001F0B1FB4FF4807001F075
:101A7000ADFBBDE810404FF4007001F0A7BB72B69B
:101A8000FEE700000848016821F4806101600168F8
:101A900041F480510160016821F4805101600168C6
:101AA00041F48061016070470020024000B58DB0B4
:101AB000FF2001900790684601F07EFA06984002E8
:101AC00002D500200DB000BD0E20FBE7224910B565
:101AD00000220C681346640504D50A6822F480626B
:101AE0000A6001224C6944F001044C610024046046
:101AF00044600869C003FCD4086980070ED40869F3
:101B000000070BD40869C00608D40869800605D40C
:101B10000869400602D40869000600D50D2308694B
:101B2000C00701D001200861486920F00100486128
:101B30005AB1086840F480500860086820F480506A
:101B40000860086840F480600860886940F00040E0
:101B50008861184610BD000000200240F0B505461F
:101B600085B01A480024049403880F464FF6FF728C
:101B700026464FF40021934201D10A4603E04FEA82
:101B800003424FEA92124FEA52024FF48023B3FB12
:101B9000F2F204D000884FEA00404FEA90114FEA79
:101BA00051004FF0006101EBC52102FB001000F075
:101BB00021FA01AB009683E8A10004A9684601F070
:101BC0008DF900B1012405B02046F0BDE075FF1F7E
:101BD0000146002001F068BA144A117F1448012917
:101BE00001D003290FD1036823F400730360036855
:101BF00043F400630360036823F400630360036835
:101C000043F400730360022901D003290BD101685A
:101C100041F480510160016821F480510160016844
:101C200041F480610160002010777047900000202F
:101C3000002002400C490A6A520210D5C20703D0A4
:101C40004A6942F004024A61800703D5486940F4BA
:101C500000404861486940F48030486170474869F5
:101C600048F204021043F4E700200240F0B5304B84
:101C70001B68304CDE054FF4002725884FF6FF7CAB
:101C80004FF0006307D41E46654501D02C04A70918
:101C900003EB570506E0654501D02C04A70903EBCB
:101CA00057061D46244C276A5FEA472C077807F041
:101CB000030718D4012F02D0022F08D030E0656A44
:101CC000C5F30E0503EB05150D60A16A06E0656C12
:101CD000C5F30E0503EB05150D60A16CC1F30E01F4
:101CE00003EB01111BE0012F02D0022F0CD017E0F3
:101CF000636AC3F30E0306EBC3030B60A16AC1F36F
:101D00000E0106EBC1010AE0636CC3F30E0305EBA1
:101D1000C3030B60A16CC1F30E0105EBC10111609F
:101D20000168A26A02F0004211430160F0BD0000A8
:101D300000000140E075FF1F002002400E4A136AB8
:101D40005B0201D5C90703D0516921F4006102E0AB
:101D5000516941F4006151615169C0B221F47E7151
:101D600041EAC0005061506940F002005061506982
:101D700040F480305061704700200240054910B5A2
:101D80004C6944F001044C610260BFF36F8F436003
:101D900010BD000000200240094A10B554694023DC
:101DA00044F480245461EFF3108272B610C95B1EB4
:101DB00010C013F0FF03F9D182F3108810BD0000AA
:101DC0000020024070B5064601F03AFB0546134C70
:101DD00007E000BF01F034FB401BB04201D90320F3
:101DE00070BD2069C003F5D420694CF2FA31084077
:101DF0000CD00B494A6802434A60010F01D0A16927
:101E0000A161010100D02061012070BD2069C007DF
:101E100001D001202061002070BD000000200240A0
:101E2000900000202DE9F14F7148704C4FF40027CD
:101E3000038826784FF6FF717A108B4201D13B461A
:101E400003E04FEA03434FEA93134FEA53039146EB
:101E5000B2FBF3F280468A4601D1384605E0B8F875
:101E600000004FEA00404FEA90104FEA50014FF057
:101E7000006B0BEBC62002FB010000F0E1F8B8F8A4
:101E8000002005464146524501D13A4603E04FEA5B
:101E900002424FEA92124FEA5203B9FBF3FC4A4660
:101EA00003FB1C23A6EBD32303F1010303F00F0371
:101EB00001D1BC4605E0B1F800C04FEA0C4C4FEA36
:101EC0009C1C4FEA5C0CB2FBFCF80CFB182C03EBDF
:101ED000DC2801D13B4604E00B884FEA03434FEA7C
:101EE00093134FEA5303B9FBF3F2CA46894601D173
:101EF000384605E0B9F800004FEA00404FEA90107C
:101F00004FEA50030BEBC82002FB030000F098F8E7
:101F1000B9F800304FF6FF72934201D13A4603E020
:101F20004FEA03424FEA92124FEA5203BAFBF3FC24
:101F3000524603FB1C23A6EBD323A3F1010303F0BA
:101F40000F0305D0B9F800104FEA01414FEA91178D
:101F50004FEA5701B2FBF1F701FB17A1009A03EB1F
:101F6000D1214FF0FF3982B3012A02D0022A38D1A1
:101F700036E020274FF40061022D02D0012D11D050
:101F80002FE062688A4226D3042802D1FEF76EFF52
:101F900000BB0321304605F09BFED8B902210FE0BB
:101FA000676020E062688A4215D3042802D1FEF7F8
:101FB0005DFF78B90321304605F08AFE50B9012152
:101FC000404605F085FE28B9EAE7FFE7022D02D07A
:101FD000012D03D005E03046BDE8F88F0846FBE749
:101FE00008B14846F8E74046F6E70000D003002075
:101FF000E075FF1F70B5104909684FF40023CE0546
:102000000E494FF6FF754FF000640A880BD4AA42C0
:1020100001D011048B0904EB5301814201D9012045
:1020200070BD022070BDAA4201D011048B0904EBDF
:1020300053018142F5D8F2E700000140E075FF1F2F
:10204000F0B5056846688368C468016942698769B4
:10205000C069FF4377EA000701D00420F0BDC84300
:1020600070EA020001D00320F0BDD84370EA0400FA
:1020700001D00220F0BDE84370EA060001D0012043
:10208000F0BD0020F0BD0000F8B500260446009623
:1020900090F858000D4601280BD0012084F8580014
:1020A0002046FEF75DFD0100E06D04D040F0100019
:1020B0002AE00220F8BD20F4885040F00200E065DC
:1020C00020688268134B1A4005F080431A4342F09F
:1020D00000428260104A20680EE0009B5B1C009367
:1020E000934209D3E06D20F0020040F01000E0655B
:1020F00084F858600120F8BD8368DB0FEDD1E06DF6
:1021000020F0020040F00100E06584F858600846C5
:10211000F8BD0000C0FFFF3F02DE04002DE9F04FD4
:10212000044690F858009BB00F464FF0000B012872
:1021300012D0012084F858000026179618962068BF
:102140004FF0A048DFF81C91DFF81CA1474D404537
:1021500006D12846009508E002201BB0BDE8F08FAC
:1021600048450AD15046CDF800A004F09FFC0090ED
:10217000206804F09BFC40B109E0E06D40F02000D5
:10218000E06584F858600120E7E7009850B1E06D01
:1021900040F02000E0654FF0010B00BF84F858606C
:1021A0005846DAE720684146884201D0A84201D16A
:1021B0002F4800E02F48D7F800C02F4B40F61F7281
:1021C000BCF1000F2DD0D0F808C094F838802CF462
:1021D000604C4CEA483CD7F804804CEA080CC0F844
:1021E00008C0D4F800C08C4501D0AC4504D1896842
:1021F000AB6801F0010109E0D9F80810DAF80850DD
:1022000001F0010105F001059B68294303F001037A
:102210001943C3D1BB683968194383689343194391
:102220001DE0876827F46047876027688F4201D0E8
:10223000AF4204D18968AB6801F0010109E0D9F827
:102240000810DAF8085001F0010105F001059B685B
:10225000294303F001031943A0D1816891438160B0
:102260009CE70000000400500005005000010050F1
:102270000003005000070050000600502DE9F04315
:1022800004469BB090468946006804F00FFC88B96C
:1022900094F8580001280DD0012084F8580000253A
:1022A0001795189520684FF0A047294EB84205D1E0
:1022B000009608E002201BB0BDE8F0832549884263
:1022C00006D1254800902046FEF782FC48B10CE07C
:1022D0000095E06D40F02000E06584F85850012042
:1022E000E9E76846FEF774FC10B184F85850E2E75D
:1022F000E06D40F60161884340F48070E06525663A
:10230000616D1648C862616D15480863616D1548B6
:1023100048632068B84201D0B04201D1124900E0C0
:1023200012491C22026084F858502068426842F02A
:102330001002426043464A460C31606D00F076FD63
:1023400021688A680A4B1A40121D8A60B3E70000B0
:10235000000100500004005000050050D30A00089E
:10236000550B00083B0B000800030050000700500D
:10237000C0FFFF7F2DE9F84F00270446009790F833
:102380005800DFF81C840D46B946012811D00126FB
:1023900084F85860206804F085FB60B1E06D40F07F
:1023A0002000E0655FF0010784F858903846BDE8EA
:1023B000F88F0220FBE7D5E900210C23206803EA0F
:1023C00091131844036B01F01F014FF01F0C0CFA1E
:1023D00001FCC2F3846223EA0C038A4013430363C3
:1023E000206804F05FFB8246206804F057FB5AEA3D
:1023F00000003CD1AA6829682068B2F1004F37D0AC
:1024000004F060FB2068416921F0004141612068CF
:102410006969C268C2F3C102520091402A69042A64
:1024200031D000EB82002B68026EDFF878C303F036
:10243000F84302EA0C020B431A4342F000410166E2
:1024400022682869A96902EB8000026E22F080727E
:102450000A430266297F22682869012910D00021D9
:1024600002EB8000026E22F000720A4302667DE0F9
:10247000002204F027FB2068416941F00041C5E7D4
:102480004FF00071ECE7002104F002FB40032068EC
:102490004FF0000172D004F0FBFA90FAA0F0B0FA0D
:1024A00080F1286842036ED090FAA0F0B0FA80F074
:1024B000814204D100221146206804F012FB012160
:1024C000206804F0E5FA400320684FF001015DD078
:1024D00004F0DEFA90FAA0F0B0FA80F12868420326
:1024E00059D090FAA0F0B0FA80F0814204D10022D5
:1024F0000121206804F0F5FA0221206804F0C8FAEE
:10250000400320684FF0020148D004F0C1FA90FA6D
:10251000A0F0B0FA80F12868420344D090FAA0F00D
:10252000B0FA80F0814204D100220221206804F038
:10253000D8FA0321206804F0ABFA400320684FF07A
:10254000030133D004F0A4FA90FAA0F0B0FA80F1BD
:10255000286842032FD090FAA0F0B0FA80F08142B0
:1025600004D100220321206804F0BBFA20688168AE
:1025700011F0010F22D0ACE000E004E004F088FA92
:10258000C0F384618DE7C0F3846091E704F080FAC2
:10259000C0F38461A2E7C0F38460A6E704F078FA90
:1025A000C0F38461B7E7C0F38460BBE704F070FA5E
:1025B000C0F38461CCE7C0F38460D0E72A7B29684C
:1025C00050F8B03FC1F3120C23EA0C0302F0180CD0
:1025D000754A22FA0CF20A4013430360E968414548
:1025E00077D1286841031CD090FAA0F1B1FA81F1AB
:1025F000491C01F01F0109294FEA403132D8002956
:1026000012D000BF90FAA0F1B1FA81F101F10101FD
:1026100001F01F0106FA01F609D100BFC0F3846181
:1026200009E0C0F38461E3E7C0F38461EEE790FA68
:10263000A0F1B1FA81F101F1010101F01F0146EAB7
:10264000816102D1C0F3846003E090FAA0F0B0FA97
:1026500080F000F1010000F01F0000EB400041EAB3
:10266000005132E000290ED090FAA0F1B1FA81F1C8
:1026700001F1010101F01F0106FA01F606D100BFC8
:10268000C0F3846106E0C0F38461F1E790FAA0F141
:10269000B1FA81F101F1010101F01F0146EA816106
:1026A00002D1C0F3846003E090FAA0F0B0FA80F0A9
:1026B00000F1010000F01F003C4A00EB400002EB7B
:1026C000005041EA000141F00071AA68206804F05E
:1026D000F9F937482B6803423FF466AE21684FF0A2
:1026E000A04C3448344E354D614501D0A94201D14A
:1026F000024600E032469268DFF8C48002F0E072E1
:10270000434503D0DFF8BC80434521D15FEA02286E
:102710001ED4614506D02C4B99427FF445AEA942A8
:1027200000D0304642F40001826822F0E0720A4391
:102730008260264826490068B0FBF1F0401C00EB9F
:102740004000800000E0401E00900028FBD12BE6F6
:10275000DFF8808043450FD15FEAC2180CD4A9424C
:1027600002D11D4B9942F2D0614502D0A94200D05E
:10277000304642F080710CE0DFF860804345E6D1DE
:102780005302E4D4A942E2D0614500D0304642F47D
:102790008001826822F0E0720A43826004E6000051
:1027A00000007F4000F0FF03FFFF0700000020FE55
:1027B0000000088000030050000700500001005096
:1027C000000021C31000C09000060050B00000209F
:1027D000400D0300000052C700050050000084CBEC
:1027E0007047704770470000F8B54FF000050400CF
:1027F0002E46009502D0E06D10B107E00120F8BD33
:10280000204600F009F9266684F85860206881683F
:10281000C1F3407119B18168734A11408160206829
:102820008168C1F3007189B98168704A114041F033
:10283000805181606E486F490068B0FBF1F0400044
:10284000801C00E0401E00900028FBD120688168B9
:10285000C1F3007141B9E16D41F01001E165216EF4
:1028600041F001012166012504F01CF9E16DC90662
:1028700000D430B1E06D40F01000E065012528463D
:10288000F8BDE06D20F4807040F00200E065206843
:10289000816811F0010F27D14FF0A043564A9842AA
:1028A00001D0904204D19968966801F001010AE0D4
:1028B00052498968524E01F00101B66806F00106DE
:1028C0003143504EB66806F0010631430CD19842B0
:1028D00001D0904201D14C4800E04C4861688268C8
:1028E00022F47C120A438260E168E06B627F084355
:1028F000A16841EA4231084394F8241040EA0140BB
:10290000012904D1218D424A02EB41410843E16A89
:1029100029B101F47871226B014342EA0100226877
:10292000D1683C4B19400143D16020680169626B5A
:1029300021F0406111430161206804F0AFF870BBE1
:10294000207F94F838102268800340EA4100D16863
:1029500044F2020399430143D160206900282068B2
:1029600001690AD041F480310161206850F8C01F2C
:1029700022696FF30D01114307E021F480310161F9
:10298000206850F8C01F6FF30D01016094F84000FB
:1029900001280CD02068016921F001010161606902
:1029A00001282068016B21F00F0111D013E0D4E958
:1029B00011010843D4E913121143084321680A693D
:1029C00040F2FC739A43104340F001000861E6E7CF
:1029D000226A521E11430163E06D20F0020040F0B4
:1029E0000100E0654BE70000C0FFFF5FC0FFFF7F15
:1029F000B0000020400D0300000100500004005012
:102A00000005005000060050000300500007005071
:102A10000000FEFF0740F0FF2DE9F04F9BB0064697
:102A200014216846FDF7CDFC542105A8FDF7C9FC2B
:102A30004FF40041326800258803DFF878810327CE
:102A4000DFF874A15D4C4FF002094FF0904BB2F1EA
:102A5000A04F12D05A4B9A4270D11690059105A8FA
:102A600001F01AFB08B1FFF70AF8D8F80000401C83
:102A7000C8F80000012864D06BE01690059105A805
:102A800001F00AFB08B1FEF7FAFFD8F80000401C7D
:102A9000C8F80000012807D1E06C40F40050E06461
:102AA000E06C00F400501A90E06C40F00400E06428
:102AB000E06C00F004001A90E06C40F00100E0646B
:102AC000E06C00F001001A90E06C40F00200E0645D
:102AD000E06CCDF8009000F002001A90CDE901758D
:102AE0006946504600F07EFB0D20CDE9000769469F
:102AF0000295584600F076FB41F20200CDE900074E
:102B0000694602952F4800F06DFB304C2E4820603E
:102B10000520C4E901058020C4E9035080006061FC
:102B20008000A0612020E06100022062204600F0C9
:102B30001DF908B1FEF7A3FF7465A6621BB0BDE8DE
:102B4000F08FE06C40F40050E064E06C00F4005062
:102B50001A90E06C40F00400E064E06C00F00400C7
:102B60001A90E06C40F00100E064E06C00F00100BD
:102B70001A90E06C40F00200E064E06C694600F0FE
:102B800002001A903520CDE900070295504600F06A
:102B900029FBCDF80090CDE901756946584600F053
:102BA00021FB0420CDE9000769460295054800F0A5
:102BB00019FBC3E71800002000080048001002407D
:102BC000000100500004004830000240F855002089
:102BD00010B590F8253000210122022B03D00421EA
:102BE000C163012122E003681C6824F00E041C600C
:102BF000836C1C6824F480741C6003681C6824F0D7
:102C000001041C6090F84430046C03F01F0302FAC6
:102C100003F36360D0E913345C60436D33B11C6827
:102C200024F480741C60D0E916345C6080F82520A0
:102C3000002280F82420084610BD70B590F82520A9
:102C4000002401212346022A07D00422C26380F80F
:102C5000251080F82430012429E00268156825F049
:102C60000E0515600268156825F001051560826C77
:102C7000156825F48075156090F84420056C02F005
:102C80001F0201FA02F26A60D0E913255560426D15
:102C900032B1156825F480751560D0E916255560A8
:102CA00080F8251080F82430816B01B188472046D8
:102CB00070BDF0B4016C0C6801680D6890F8442098
:102CC00002F01F06042202FA06F3234211D06B071A
:102CD0000FD50B689B0603D40B6823F004030B602D
:102CE00090F8441001F01F018A40016C4A60016BAA
:102CF0001DE0022303FA06F727424FF0000C4FF0C5
:102D0000010218D0AF0716D50C68A40605D40C68CC
:102D100024F00A040C6080F8252090F8441001F09B
:102D20001F018B40016C4B6080F824C0C16A0029F0
:102D30001AD0F0BC08470823B340234214D02B0715
:102D400012D50B6823F00E030B6090F84410036C4F
:102D500001F01F0102FA01F15960C26380F82520D9
:102D600080F824C0416BE2E7F0BC704770B5040006
:102D70000CD02B4A21681420914209D2294A0A44D6
:102D8000B2FBF0F08000606427480AE0012070BDCB
:102D9000234A52420A44B2FBF0F0800060642048AB
:102DA00008382064022084F825000A6847F6F0708D
:102DB0008243D4E902031843D4E904352B43184372
:102DC000A3691843E3691843236A18431043086052
:102DD0002046FDF7F9FFA0680025B0F5804F00D12F
:102DE0006560A16C20790860D4E9130141606068D6
:102DF000401E032808D82046FEF706F8606D0560DF
:102E0000D4E91601416002E06565A565E565E56305
:102E1000012084F8250084F82450002070BD0000B3
:102E200008040240F8FFFDBF0000024070B50446F0
:102E300090F82400002501280CD0012084F82400FB
:102E400094F825600020012E06D084F82400022585
:102E5000284670BD022070BD022684F82560E0631C
:102E60002068066826F0010606602046FDF7DEFFB2
:102E7000206B00282068016802D041F00E0106E0B6
:102E800021F0040101602068016841F00A0101603D
:102E9000A06C0168C90303D5016841F48071016029
:102EA000606D18B1016841F48071016020680168AB
:102EB00041F001010160CBE770B5044600F0C0FAB3
:102EC0000546601C02D004484068044400F0B8FA8B
:102ED000401BA042FAD370BD840000202DE9F05FB2
:102EE000054633488946017801290CD001268046E1
:102EF00006704FF47A7B5846FEF764FF07004FF0E8
:102F0000000A03D04FE00220BDE8F09F5146404642
:102F1000C8F804A0274C226892050AD52168490503
:102F200005D5216821F480612160032109E006773D
:102F300008E02268520504D5216821F480612160EF
:102F4000022101772868012807D04FF0FF31C9F826
:102F5000001040F2FA3BAE681EE06868FEF76AFEB9
:102F60005846FEF72FFF0746606948F20401884380
:102F7000606116E030466968FEF7E0FE4FF47A7053
:102F8000FEF720FF0700606920EA0B00606102D0B5
:102F9000C9F8006005E0761CD5E902010844B0429A
:102FA000E8D8FEF719FE88F800A03846ACE7000024
:102FB000900000200020024070B5044606202060EA
:102FC000314D606828B1012803D0022801D00428BF
:102FD00017D10721216030B101280AD0022822D060
:102FE000042826D00DE0E86A00F07F00A060E86ABF
:102FF00004E0286B00F07F00A060286BC0F306405F
:10300000E060286AC0B2AA2802D0CC2800D0BB2039
:103010002061286A20F0FF00A061E06901280ED03D
:1030200002280CD015E0E86C00F07F00A060E86C8E
:10303000E4E7286D00F07F00A060286DDEE72068DF
:1030400004F1240240F00800111F2060081FFEF761
:103050000DFE206840F010012160286F00F48030E0
:10306000A062E06A012801D0022809D141F02001C4
:103070002160012805D0022802D1686FC0B2206308
:1030800070BD286FFAE700000020024005490120CA
:103090004A6942F000424A614969002900DA002089
:1030A00070470000002002402DE9FF5F254C0646D6
:1030B000904620789A4601280BD0012020704FF4CA
:1030C0007A7B5846FEF77EFE07004FF0000904D0D9
:1030D0002AE0022004B0BDE8F09F4846C4F80490FE
:1030E000194D2968490504D5286820F480602860B6
:1030F0000220207726B1012E09D0022E07D00CE045
:10310000424653460198FEF739FE012612E0414639
:103110000198FEF741FE022E0AD05846FEF752FEF5
:103120004FEA0007FEF758FD84F800903846D1E7D3
:103130004FF480265846FEF745FE07466869B043BF
:103140006861EFE79000002000200240064900205F
:103150004A69002A07DA054A8A60054A8A6049698D
:10316000002900DA01207047002002402301674552
:10317000AB89EFCD402817D0802810D0B0F5807FE4
:103180000AD0B0F5007F04D10C48016811B10021CC
:10319000016070470121FBE70121094801E009486E
:1031A0000121006811F014BA07480179022902D000
:1031B000022101717047002010F0D4BB04000020F0
:1031C000080000200C00002070730020044910B596
:1031D0000A68024202D00860FFF7CCFF10BD000071
:1031E000140401402DE9F04FDFF82092002301265E
:1031F0000324A9F1040B85B00F2709F1040AABF1F0
:10320000040EFAE006FA03F52A407CD091F804C0D7
:103210000CF0030CBCF1010F02D0BCF1020F26D15F
:10322000D0F808C0CDF800C04FEA430C04FA0CF8FF
:10323000CDF810C0DDF800C02CEA080CCDF800C0B5
:10324000D1F80C80DDF810C008FA0CF8DDF800C0E9
:1032500048EA0C08C0F80880D0F804C02CEA050C35
:103260000D79C5F300159D4045EA0C0545600D79C3
:10327000ED43AD070ED0C5684FEA430804FA08FCD9
:1032800025EA0C05D1F808C00CFA08FC4CEA050C3C
:10329000C0F80CC00D7905F00305022D16D1DD082C
:1032A00000EB850CCDF808C0DCF820805D074FEA04
:1032B000D56C07FA0CF528EA05080D6905FA0CF536
:1032C000DDF808C045EA0805CCF8205005684FEA4B
:1032D000430CCDF808C004FA0CFC25EA0C0591F863
:1032E00004C00CF00308DDF808C008FA0CF848EA3E
:1032F0000508C0F800804D6815F4403F7CD0444D6F
:10330000D5F860C000E077E04CF0010CC5F860C073
:103310002D6E23F0030C05F0010500953D4D65442D
:103320000295AD684FEA837C4FEA1C7807FA08FCE7
:1033300025EA0C05B0F1904F06D0DFF8DCC06045FF
:1033400005D14FF0010C20E04FF0000C1DE0DFF83C
:10335000CCC0604502D14FF0020C16E0DFF8C0C0CF
:10336000604502D14FF0030C0FE0DFF8B8C06045B4
:1033700002D14FF0040C08E0DFF8ACC0604502D188
:103380004FF0050C01E04FF0060C0CFA08FC4CEA7B
:10339000050C029DC5F808C0D9F80050CC46D1F8FC
:1033A000048095435FEAC82800D51543CCF8005047
:1033B000DAF80050D446D1F8048095435FEA8828B3
:1033C00000D51543CCF80050DBF80050DC46D1F8AE
:1033D000048095435FEA883800D51543CCF8005047
:1033E000DEF80050F446D1F8048095435FEAC8380F
:1033F00000D51543CCF800505B1C0A6832FA03F57F
:103400007FF400AF05B0BDE8F08F00000804014074
:10341000001002400000014000040048000800487D
:10342000000C0048001000480014004800690840E3
:1034300000D0012070470AB18161704781627047F6
:1034400001488068704700008400002002488168BD
:1034500042681144816070478400002010B5002448
:10346000032000F09BF80F2000F008F808B10124B9
:1034700001E000F047F8204610BD000030B50546D9
:103480001B4887B0816D41F010018165806D06A9F0
:1034900000F01000009001A801F06CF801F08AF82B
:1034A0001449154AB0FBF1F11448491E026041600D
:1034B00040F2E7320021C0E90321816001F08BFF77
:1034C000040012D10D4802F02BF804000DD1362073
:1034D00000F036F8102D07D200222946362000F0E1
:1034E0003DF80748056000E0012407B0204630BDE4
:1034F0000010024040420F000010004058590020C8
:10350000840000200D4808B5016E41F001010166FC
:10351000016E01F001010091816D41F080518165E2
:10352000806D002200F0805000900F21901E00F06E
:1035300015F8BDE8084000F0A7BD000000100240EB
:10354000002809DB00F01F020121914040098000A2
:1035500000F1E020C0F8001170470000F0B40E4BFD
:103560001B680C46C3F30223C3F10705042D00D9E1
:103570000425191D072901D2002300E0DB1E0126C6
:1035800006FA05F1491E214099409E40761E1640DC
:103590003143F0BC06F035BF0CED00E0064900F009
:1035A000070208684FF6FF03184040EA0220034A6A
:1035B00010430860704700000CED00E00000FA05C1
:1035C00001220168C0F8D022002280F8C82231F818
:1035D000540F40F001000880088840F00200088085
:1035E0001046704770B50F4D044669B101290AD1E4
:1035F000D4F8D80205F0A1FF607A002803D028682B
:1036000040F00600286070BD607A28B104F0B3FC79
:10361000286820F006002860D4F8D802BDE8704081
:1036200005F023BF10ED00E010B50C0607D501F042
:10363000070101EB810100EBC100103005E001EB57
:10364000810100EBC10000F5A87099B232B10122EE
:1036500002730181190C4181002010BD0022027308
:10366000C180F9E701EB810200EBC202D0F8D80279
:10367000526A05F0D8BD01EB810200EBC202D0F81E
:10368000D802D2F8642105F022BE70B504460B06BC
:1036900001F0070000EB800104EBC1014FF00102D3
:1036A0004FF0000502D54A74103103E081F8515102
:1036B00001F5A871087094F89002012808D084F8E8
:1036C0009022206806F0EBFA84F89052002070BD3A
:1036D000022070BD70B5044601F00F0022799042BF
:1036E00001D9012070BD0B0601F0070000EB80013D
:1036F00004EBC1014FF001024FF0000502D54A74FE
:10370000103103E081F8515101F5A8718D700870F6
:1037100094F89002012808D084F89022206806F0DE
:103720005DFB84F89052002070BD022070BD2DE931
:10373000F04704685FEA42480B788D69B4F850801E
:103740004FF0000C4BF68F7748F2800648F68F79E1
:1037500048F2C00A444428D540F2024808EBC308A6
:1037600034F80840C4F30904A54203D32D1B8D612E
:1037700002D00BE0C1F818C0D0F800C03CF82350CC
:103780003D4085F4005535432CF82350520609D5A9
:103790000B78056835F8232002EA090242EA0A029A
:1037A00025F8232074B30A8927E040F2064808EB85
:1037B000C30834F80840C4F30904A54203D32D1B01
:1037C0008D6102D00BE0C1F818C0D0F800C03CF801
:1037D00023503D4085F4005535432CF823505206C4
:1037E00009D40D78036833F8252002EA090242EA79
:1037F0000A0223F825202CB14A894969006823462A
:1038000006F007FD2046BDE8F0872DE9F05F05468C
:1038100000680C465FEA42681646D1F818C0227864
:10382000B0F8508048F6BF7A48F2800B48F68F77A0
:103830004CF280094FF6FF734FF4004E4FF0000139
:1038400040447DD540F2024808EBC20830F8080039
:10385000C0F30900844514D9BCEB000CC4F818C0AF
:1038600010D0760408D5D5F800C03CF822603E4060
:1038700046EA09062CF8226094F82420012A60D038
:1038800076E1A161607810B1012813D01AE02868B0
:10389000B0F85030184400EBC200B0F80224C2F374
:1038A0000902A0F80224B0F8022442F40042A0F871
:1038B000022407E02868B0F85030184400EBC2003A
:1038C000A0F802146278286812B1012A11D018E019
:1038D000B0F850100844217800EBC100B0F806148D
:1038E000C1F30901A0F80614B0F8061441F4004130
:1038F00005E0B0F850201044227800EBC200A0F898
:103900000614E07802280BD12278296831F82200C9
:1039100000EA0A0080F0200040EA0B0021F82200B3
:1039200021782846FFF79EFE700408D521782A6882
:1039300032F82100384040EA090022F82100C3E0B3
:103940004DE0626902446261E2690244E261266913
:10395000226AB24202D33046111A03E084F82410DE
:103960000AB110462162617811B101292BD033E0F0
:103970002968B1F850201144227801EBC201B1F856
:103980000224C2F30902A1F8022401F2024158B153
:103990003E280ED84208C60700D0521C0E8803EA03
:1039A000822216430E8017E00A8842F400420A8001
:1039B00012E04209C30600D1521E0B884EEA822251
:1039C00013430B8008E02968B1F850201144227895
:1039D00001EBC201A1F8020483B22289C4E040F2E3
:1039E000064808EBC20830F80800C0F30900844517
:1039F00014D3BCEB000CC4F818C010D0760408D463
:103A0000D5F800C03CF822603E4046EA09062CF892
:103A1000226094F82420012A59D0A9E0A16160789D
:103A200010B1012813D01AE02868B0F850301844BB
:103A300000EBC200B0F80224C2F30902A0F802248D
:103A4000B0F8022442F40042A0F8022407E02868FB
:103A5000B0F85030184400EBC200A0F802146278AD
:103A6000286812B1012A11D018E0B0F850100844AB
:103A7000217800EBC100B0F80614C1F30901A0F8E9
:103A80000614B0F8061441F4004105E0B0F85020E7
:103A90001044227800EBC200A0F80614E078022857
:103AA0000BD121782A6832F8210000EA0A0080F060
:103AB000200040EA0B0022F8210021782846FFF779
:103AC000D1FD70047FF532AF0020BDE8F09F626940
:103AD00002446261E2690244E2612669226AB242FA
:103AE00003D33046111A216204E00AB11046216264
:103AF00084F824106278296812B1012A2AD031E0B2
:103B0000B1F850201144227801EBC201B1F806242B
:103B1000C2F30902A1F8062401F2064158B13E2879
:103B20000ED84208C60700D0521C0E8803EA822233
:103B300016430E8016E00A8842F400420A8011E023
:103B40004209C30600D1521E0B884EEA822213435B
:103B50000B8007E0B1F850201144227801EBC2013C
:103B6000A1F80604628983B26169286806F06CFBDB
:103B70002278296831F8220000EA0A0080F030003B
:103B800040EA0B0021F822009EE701F0070101EB5B
:103B9000810100EBC100D0F86C0170472DE9F041C4
:103BA00004460F0601F0070000EB800104EBC101A1
:103BB0004FF001064FF0000502D54E74103103E0BE
:103BC00081F8515101F5A871022B0870C2F30A0067
:103BD0000861CB7000D10D7194F89002012809D0D2
:103BE00084F89062206805F0A5FE284684F890527B
:103BF000BDE8F0810220FBE710B501F0070404EBFB
:103C0000840100EBC101C1E959230022C1F86C21F4
:103C100081F8512181F85041006801F5A87106F042
:103C20002FF9002010BD70B5044601F0070022797D
:103C3000904201D9012070BD0B064FF000054FF0F6
:103C4000010206D500EB800104EBC1014A7410317A
:103C500007E001EB810104EBC10181F8515101F54D
:103C6000A8718A70087094F89002012808D084F82E
:103C70009022206806F0EAF884F89052002070BD87
:103C8000022070BD10B501F0070404EB840100EBC5
:103C9000C101C1E90923012281F834200B6300230B
:103CA000CB624A7401F8104F006806F0E9F8002072
:103CB00010BD10B50446006806F0A8FA010404D54A
:103CC0002046BDE8104003F0E3BA41050ED5206858
:103CD00030F8441F21F480610180204600F008F98B
:103CE0002046BDE81040002100F02EB9410405D562
:103CF000206830F8441F21F480417DE0810405D51F
:103D0000206830F8441F21F4005175E0C1041FD52C
:103D1000206830F8401F21F004010180206830F84D
:103D2000401F21F00801018094F8C802012806D143
:103D3000002084F8C80201462046FFF753FC2046C5
:103D400000F0EAF8206830F8441F21F4805153E075
:103D5000010512D5206830F8401F41F008010180AC
:103D6000206830F8441F21F400610180206830F899
:103D7000401F41F0040101800AE0010629D52068B6
:103D800030F8441F21F08001018094F8C80218B176
:103D9000204600F009F910BD206830F8401F41F0BE
:103DA00004010180206830F8401F41F008010180C3
:103DB000012084F8C8022068B0F854003C2101EAD0
:103DC0009000C4F8CC022046BDE810400121FFF766
:103DD00009BC810509D5206830F8441F21F4007121
:103DE0000180204600F0ACF810BDC005FCD520686D
:103DF00030F8441F21F48071018010BD70B50400BB
:103E000004D094F89102002510B106E0012070BDA5
:103E100084F89052204600F03FF8032084F8910285
:103E2000206805F0D3FF002001260BE000EB8001A5
:103E300004EBC1014E740874CD740D624D62401CD8
:103E4000C0B28D6221798142F0D8002012E000BF1B
:103E500000EB800104EBC10181F8515181F8500160
:103E600081F85351C1F86051C1F86451401CC0B28F
:103E7000C1F8685121798142EAD894E8070005F039
:103E80009CFF257384F89162A07A012802D1204614
:103E9000FFF796FB002070BD10B596B00446542184
:103EA0006846FCF78EFA1049206888421AD14014FF
:103EB000009000200F90684600F0EEF808B1FDF782
:103EC000DEFD0A48816D41F400018165806D0022AC
:103ED00000F40000159005211420FFF73FFB14208B
:103EE000FFF72EFB16B010BD005C00400010024032
:103EF00070B5044640790125022801D0FDF7BFFDC9
:103F00002946D4F8D80205F0CAFAD4F8D802BDE898
:103F1000704005F07DBA000010B50446407A30B11B
:103F20000648016821F00601016004F024F8D4F885
:103F3000D802BDE8104005F098BA000010ED00E08E
:103F4000D0F8D80205F09BBA10B5044690F890025C
:103F500001280AD0012084F890022173206806F01D
:103F60006CF9002084F8900210BD022010BDD0F83A
:103F7000D82200F52671104605F09DBA10B504460A
:103F800090F8900201280CD0012084F8900220685B
:103F900006F02DF9206805F009FF002084F8900252
:103FA00010BD022010BD000010B50446D0F8D802A4
:103FB00005F0C3FA607A002804D00348016841F094
:103FC0000601016010BD000010ED00E02B492C4BF4
:103FD0000A6832214A432B4940B1B0F5007F086896
:103FE00029D020F4C06040F480602CE00868C0F361
:103FF0004120022804D051F8800F20F4807022E084
:10400000D1F8800020F48070C1F88000086820F4A6
:10401000C06040F400700860B2FBF3F0401C00E0A8
:10402000401E4A69520501D50028F9D1486940056A
:104030000AD503207047C0F34120022806D051F86A
:10404000800F40F48070086000207047D1F8800035
:1040500040F48070C1F88000086820F4C06040F42B
:1040600000700860B2FBF3F0401C00E0401E4A699B
:104070005205DBD50028F9D1D8E70000B0000020B8
:1040800040420F00007000400248816841F48041C6
:1040900081607047007000402DE9F84304460068D5
:1040A0000026BB4D00035ED5A86D0027C00008D4D4
:1040B000A86D40F08050A865A86D012700F08050E1
:1040C0000090DFF8D092D9F8001041F48071C9F85F
:1040D0000010FFF7B5F9804606E000BFFFF7B0F922
:1040E000A0EB080002282BD8D9F80000C005F5D5B0
:1040F000D5F8900010F4407014D0216D814211D099
:10410000D5F89000D5F8901020F4407041F480313B
:10411000C5F89010D5F8901021F48031C5F89010B2
:10412000C5F89000C00711D0FFF78AF9804641F228
:10413000883907E0FFF784F9A0EB0801494501D968
:1041400003260BE0D5F890008007F3D5D5F8900052
:10415000216D20F440700843C5F890001FB1A86D90
:1041600020F08050A8652078C00707D0D5F88800D7
:10417000616820F003000843C5F8880020788007B4
:1041800007D5D5F88800A16820F00C000843C5F8D1
:1041900088002078400707D5D5F88800E16820F02E
:1041A00030000843C5F888002078000707D5D5F807
:1041B0008800216920F0C0000843C5F888002078F5
:1041C000C00607D5D5F88800616920F4407008431F
:1041D000C5F888002078800607D5D5F88800A16941
:1041E00020F440600843C5F888002078400607D5D1
:1041F000D5F88800E16920F440500843C5F88800EC
:104200002078000607D5D5F88800216A20F44040C0
:104210000843C5F888002088C00507D5D5F8880070
:10422000616A20F440300843C5F8880020688003A4
:1042300007D5D5F89C00A16A20F003000843C5F813
:104240009C002088800507D5D5F88800E16A20F415
:1042500040200843C5F88800208840050FD5D5F8D0
:104260008800216B20F440100843C5F88800206BBB
:10427000B0F5801F03D1E86840F48010E860208822
:1042800000050FD5D5F88800616B20F44000084385
:10429000C5F88800606BB0F5800F03D1E86840F482
:1042A0008010E8602088C0040FD5D5F88800A16B85
:1042B00020F040700843C5F88800A06BB0F1807F03
:1042C00003D1E86840F48010E86020884FF0006176
:1042D00080040ED5D5F88800E26B20F040601043D2
:1042E000C5F88800E06B884203D1E86840F480108C
:1042F000E860208840040ED5D5F88800226C20F0B4
:1043000040601043C5F88800206C884203D1E868FB
:1043100040F48010E860208800040FD5D5F88800AC
:10432000616C20F040500843C5F88800606CB0F123
:10433000805F03D1E86840F48030E8602068C00303
:104340000FD5D5F88800A16C20F040400843C5F88F
:104350008800A06CB0F1804F03D1E86840F4803051
:10436000E860206840030FD5D5F89C00E16C20F48C
:1043700040100843C5F89C00E06CB0F5001F03D165
:10438000E86840F48010E8603046BDE8F88300003B
:1043900000100240007000402DE9F0470E46050075
:1043A0004FF0000725D0DFF8AC81D8F8000000F00E
:1043B0000F00B0420CD2D8F8001021F00F013143A9
:1043C000C8F80010D8F8000000F00F00B04210D17B
:1043D0002968614CC80741F2883A5AD06868DFF80A
:1043E0007C91032808D0022820682DD040050028A1
:1043F0002CDB0120BDE8F08720688001F9D5E0685A
:1044000000F00302E068C0F30310401C032A19D037
:10441000534A00BFB2FBF0F0E268C2F306225043F9
:10442000E268C2F34162521C5200B0FBF2F0484510
:1044300017D9A06810F0F00F0CD0880711D5A86824
:1044400040B10EE0474AE5E78003D0E700F0D6F838
:10445000484506D9A06820F0F00040F08000A06038
:104460008027A068696820F003000843A060FEF779
:10447000E7FF814606E000BFFEF7E2FFA0EB09017F
:1044800051453AD8A068696800F00C00B0EB810F84
:10449000F2D12868810714D5400703D5A06840F4FD
:1044A000E060A0602878000705D5A06820F460507F
:1044B00040F4E060A060A068A96820F0F000084324
:1044C00004E0802F03D1A06820F0F000A060D8F8AD
:1044D0000010404601F00F01B14216D9016821F0E9
:1044E0000F0131430160FEF7ABFF074607E000BF55
:1044F000FEF7A6FFC11B514501D903207AE7D8F882
:10450000000000F00F00B042F2D12878400705D536
:10451000A068E96820F4E0600843A06028780007FC
:1045200006D5A068296920F4605040EAC100A06067
:1045300000F064F8A1680C4AC1F30311515C01F06A
:104540001F01C8400949086009480068BDE8F047F4
:10455000FEF794BF002002400010024000B4C404E3
:104560000024F40000127A0004970108B000002033
:10457000840000200F2202600C4A936803F00303BA
:104580004360936803F0F0038360936803F4E0638F
:10459000C36092684FF4E06303EAD2020261044808
:1045A000006800F00F000860704700000010024033
:1045B000002002400548064900688968054AC1F3A1
:1045C0000221515C01F01F01C8407047B00000207B
:1045D00000100240149701080548064900688968E0
:1045E000054AC1F3C221515C01F01F01C840704768
:1045F000B00000200010024014970108184910B5BF
:104600008868C0F381021748012A0BD08A684310DA
:10461000C2F38102022A06D08A68C2F38102032A09
:1046200003D0002010BD184610BDCA6802F0030474
:10463000CA68C2F30312521C032C02D0B0FBF2F082
:1046400001E0B3FBF2F0CA68C968C2F30622504326
:10465000C1F34161491C4900B0FBF1F010BD0000FD
:10466000001002400024F4002DE9F84304007AD041
:104670002078F84DC00747D0A868E96800F00C0022
:1046800001F003010C2802D0082817D001E003290B
:1046900014D06068B0F5803F17D0B0F5A02F28681F
:1046A00017D020F480302860286820F4802028600B
:1046B0006068E0B1FEF7C4FE064614E02868800397
:1046C00022D560680028D2D01EE0286840F48030EF
:1046D000EDE740F480202860F7E700BFFEF7B0FE6A
:1046E000801B642870D828688003F7D50CE0FEF79B
:1046F000A7FE064605E000BFFEF7A2FE801B642869
:10470000F0D828688003F7D4207880074CD5A868B3
:10471000E96800F00C0001F003010C2802D0042825
:104720000DD001E002290AD0E068002828682BD0CB
:1047300040F480702860FEF783FE064619E0286882
:10474000400502D5E068002891D06868217C20F0FF
:10475000FE4040EA01606860BF480068FEF78EFED8
:10476000002800D120E072E1FEF76AFE801B0228DB
:10477000B8D828684005F7D56868217C20F0FE404D
:1047800040EA016068600FE020F480702860FEF766
:1047900057FE064605E000BFFEF752FE801B0228CA
:1047A000A0D828684005F7D42078000729D560698B
:1047B0000028D5F8940013D040F00100C5F894000B
:1047C000FEF73EFE064606E090E000BFFEF738FE2C
:1047D000801B022886D8D5F894008007F6D510E013
:1047E00020F00100C5F89400FEF72AFE064604E01A
:1047F000FEF726FE801B022878D8D5F894008007A3
:10480000F6D42078400761D5A86D0026C00008D4F2
:10481000A86D40F08050A865A86D012600F080507A
:1048200000908E480168C90511D40168804641F4A2
:1048300080710160FEF704FE074604E0FEF700FE0B
:10484000C01B022852D8D8F80000C005F6D5A068D1
:10485000012815D00528D5F8900016D020F00100C9
:10486000C5F89000D5F8900020F00400C5F890003D
:10487000A06841F28838B8B1FEF7E2FD07460EE0C5
:10488000D5F8900040F00100F0E740F00400C5F8D2
:104890009000F5E7FEF7D4FDC11B414526D8D5F8B9
:1048A00090008007F6D50CE0FEF7CAFD074604E04D
:1048B000FEF7C6FDC11B414518D8D5F8900080070A
:1048C000F6D41EB1A86D20F08050A865207880062F
:1048D00029D5A0690028D5F8980013D040F0010030
:1048E000C5F89800FEF7ACFD064606E075E000BF8F
:1048F000FEF7A6FD801B02286FD8D5F89800800728
:10490000F6D510E020F00100C5F89800FEF798FDFC
:10491000064604E0FEF794FD801B02285DD8D5F81A
:1049200098008007F6D4E069F0B3A968C1F381016B
:1049300003295DD00228286820F08070286003D009
:10494000FEF77EFD04464BE0FEF77AFD064604E0E6
:10495000FEF776FD801B02283FD828688001F7D437
:10496000F4E908016FF00F0202EB01110843218AFC
:104970005204490802EB4151A26841EA022108436E
:10498000217D4FF07E42490802EB41610843217BC3
:1049900040EAC160E968324A11400843E86028688B
:1049A00040F08070286000E05EE0E86840F08070D1
:1049B000E860FEF745FD044605E000BFFEF740FD58
:1049C000001B022809D828688001F7D54CE000BFF9
:1049D000FEF736FD001B022802D90320BDE8F8834C
:1049E00028688001F4D4E8681E490840E8603BE08C
:1049F0000128F3D0E868226A00F00301914226D131
:104A0000616A00F0F0020901103991421FD1A26AD7
:104A100000F4FE41B1EB022F19D194F82C2000F0E4
:104A20007841B1EBC26F12D1218E00F4C002490867
:104A30004905A1F50011914209D194F8341000F014
:104A4000C06049084906A1F1007181420CD00120E3
:104A5000C4E7000000100240840000200070004005
:104A60000C809F01FCFFEEFE0020B7E770B504004C
:104A700009D0606A002540B125616561A56294F89E
:104A80005D0040B10CE0012070BD6068B0F5827F30
:104A9000F4D0E561F2E784F85C50204600F05CF861
:104AA000022084F85D002068016821F04001016067
:104AB000E1684FF4E062914201D9002001E04FF437
:104AC0008050B1F5706F02D0914200D0A562A188EC
:104AD000228901F4827102F404421143227C02F023
:104AE00002021143227D02F001021143228B02F4E3
:104AF00000721143227F02F03802114394F8202003
:104B000002F080021143228D02F400521143226808
:104B10001160A169042202EA114194F8242000F4F2
:104B2000805002F01002114394F8342002F0080281
:104B30001143A28902F4706211430143206841606D
:104B40002068C16921F40061C1612566012084F8F3
:104B50005D00002070BD000010B586B00446142131
:104B60006846FBF72EFC2368204C002120480222D7
:104B7000A34219D1036E43F480530366036E03F41A
:104B800080530593C36C43F00203C364C06C00F010
:104B90000200059038200090CDE901210520CDE9E3
:104BA0000310694613481CE0134CA3421BD1836DCC
:104BB00043F400438365836D03F400430593C36CA2
:104BC00043F00403C364C06C00F0040005904FF48C
:104BD000A0500090CDE901210620CDE903106946DF
:104BE0000648FEF7FFFA06B010BD00000030014095
:104BF0000010024000040048003C0040000800484B
:104C00002DE9F84F984616468A460446FEF718FCEA
:104C1000814694F85D00012820D1BAF1000F6FD0D1
:104C2000002E6DD094F85C00012817D0012784F87D
:104C30005C70032084F85D0000252566C4F838A068
:104C4000A687E6872564A4F84450A4F84650256555
:104C5000E564A068B0F5004F03D00CE00220BDE889
:104C6000F88F2068016821F0400101602068016828
:104C700041F48041016020680168490603D401685D
:104C800041F040010160E068B0F5E06F606826D94E
:104C900008B1012E1FD1A06B21680088C86006E012
:104CA00020688168890709D5A16B0988C160A06B5C
:104CB000801CA063E08F401EE0870CE0FEF7C0FB85
:104CC000A0EB0901414503D3B8F1FF3F03D04BE00E
:104CD000B8F1000F48D0E08F0028E1D139E008B1E9
:104CE000012E33D1E08F0128A06B03D92168008801
:104CF000C86010E021680078087314E0E08725E0C0
:104D000043E020688168890713D5E18F0129A16BF1
:104D100007D90988C160A06B801CA063E08F801E4A
:104D2000ECE709780173A06B401CA063E08F401E84
:104D3000E4E7FEF785FBA0EB0901414503D3B8F199
:104D4000FF3F03D010E0B8F1000F0DD0E08F002836
:104D5000D7D14A464146204602F0C4FE08B1202081
:104D60002066A06830B109E084F85D7084F85C507A
:104D7000032074E72068C1688068009084F85D7043
:104D800004F85C5F60680028F3D0012067E72DE934
:104D9000FF5F1D46934604464FF001090E9EFEF745
:104DA0004FFB074694F85D006168012806D0B1F515
:104DB000827F39D1A168B1BB042835D10198002880
:104DC0007CD0BBF1000FFBD0002DF9D094F85C0033
:104DD000012829D04FF0010A84F85CA094F85D0006
:104DE000042802D0052084F85D004FF00008C4F8C4
:104DF0006080C4F840B0A4F84650A4F8445001992B
:104E0000A163E587A587C4F84C80C4F85080E068AA
:104E10004FF4E061884201D8012D09D92068426829
:104E200022F4805208E0FFE7022004B0BDE8F09FC2
:104E30002068426842F4805242602068026852064C
:104E400003D4026842F040020260E0688842606871
:104E500046D908B1012D3BD1A06B01882068C16003
:104E6000A06B801CA063E08F401EE08730E02068CC
:104E7000816889070FD5E18F69B1B9F1010F0AD1B6
:104E8000A16B0988C160A06B801CA063E08F401EED
:104E9000E0874FF0000920688168C90711D0B4F895
:104EA000461071B1C068216C0880206C801C2064A1
:104EB000B4F84600401EA4F8460000E09EE04FF023
:104EC0000109FEF7BDFAC01BB04201D3701C74D1BA
:104ED000E08F0028CBD1B4F846000028C7D175E098
:104EE00008B1012D6BD1E08F0128A06B08D9216892
:104EF0000088C860A06B801CA063E08F801E07E064
:104F0000216800780873A06B401CA063E08F401EEE
:104F1000E08754E02068816889071AD5E18FC1B124
:104F2000B9F1010F15D1E18F0129A16B07D90988CA
:104F3000C160A06B801CA063E08F801E06E0097832
:104F40000173A06B401CA063E08F401EE0874FF010
:104F5000000920688168C90728D0B4F8461029B331
:104F6000B4F84610012914D9C068216C0880206C5F
:104F7000801C2064B4F84600801EA4F84600B4F8F3
:104F80004600012810D82068416841F480514160F2
:104F90000AE0007B216C0870206C401C2064B4F88F
:104FA0004600401EA4F846004FF00109FEF748FAFB
:104FB000C01BB04202D3701C01D012E08EB1E08F52
:104FC0000028A7D1B4F846000028A3D13A463146BC
:104FD000204602F087FD50B12020206684F85C80D6
:104FE0000CE084F85DA084F85C8003201DE784F861
:104FF0005DA084F85C80206E0028F7D0012014E7C3
:10500000704770477047000030B590F83C20012A87
:1050100045D0012280F83C20CA688B6822F4407297
:105020001A434B6822F480621A430B6822F4006230
:105030001A430B6922F480521A434B6922F400523E
:105040001A430B6B22F480421A430B8B22F470221A
:1050500042EA0342CB6922F080521A43114D0368A1
:105060000024AB4205D0104DAB4202D00F4DAB42F5
:1050700010D10D8D22F4700242EA05520D6A22F021
:1050800080722A434D6A22F000722A43C96A22F0D4
:1050900000520A435A6480F83C40002030BD022090
:1050A00030BD0000002C01400034014000500140A0
:1050B0007047704770470000F0B590F83C20012A17
:1050C00043D0012580F83C50022280F83D2003683F
:1050D0005A689C681E4E1F4FDFF87CC0B34203D055
:1050E000BB4201D0634504D122F4700E4A6842EA03
:1050F0000E02DFF868E002EA0E02D1F800E04EEAA4
:10510000020EC3F804E00268B24212D0B2F1804F3E
:105110000FD0134B9A420CD0124B9A4209D0124B2B
:105120009A4206D0BA4204D0104B9A4201D062454E
:1051300004D1896824F080031943916080F83D50C0
:10514000002180F83C100846F0BD0220F0BD0000B0
:10515000002C014000340140005001408FFFFFFD52
:105160000004004000080040000C004000400140E6
:1051700010B50446022249B104290ED0082913D0E3
:1051800094F84700012816D0012010BD94F844007F
:105190000128F9D184F844200FE094F84500012853
:1051A000F2D184F8452008E094F846000128EBD1BC
:1051B00084F8462001E084F847200422206802F0A9
:1051C000EAFF2068416C41F40041416413492068C2
:1051D000884214D0B0F1804F11D0114988420ED0CE
:1051E000104988420BD01049884208D00F498842A4
:1051F00005D00F49884202D00E49884207D1816804
:105200000D4A1140062906D0B1F5803F03D0016850
:1052100041F001010160002010BD0000002C0140A0
:105220000004004000080040000C00400034014031
:1052300000400140005001400700010070B50446E5
:105240000D460068002202F0A6FF2068036A41F2C2
:1052500011110B4244F2444206D1036A134203D1B6
:10526000436C23F4004343642068036A0B4206D175
:10527000016A114203D1016821F00101016001209E
:105280003DB1042D08D0082D09D084F84700002036
:1052900070BD84F84400FAE784F84500F7E784F825
:1052A0004600F4E710B50446022249B104290ED0A5
:1052B000082913D094F84700012816D0012010BD0A
:1052C00094F844000128F9D184F844200FE094F8C0
:1052D00045000128F2D184F8452008E094F8460002
:1052E0000128EBD184F8462001E084F8472004220D
:1052F000206802F050FF2068416C41F40041416495
:1053000013492068884214D0B0F1804F11D0114960
:1053100088420ED0104988420BD01049884208D0EC
:105320000F49884205D00F49884202D00E49884271
:1053300007D181680D4A1140062906D0B1F5803F9A
:1053400003D0016841F001010160002010BD0000A0
:10535000002C01400004004000080040000C004008
:1053600000340140004001400050014007000100AE
:10537000704710B50446022084F83D002068016A99
:1053800041F21112114207D1016A9200114203D178
:10539000016821F001010160204600F04DF8002075
:1053A00084F8480084F83E0084F83F0084F8400008
:1053B00084F8410084F8420084F8430084F84400F3
:1053C00084F8450084F8460084F8470084F83D00DE
:1053D00084F83C0010BD10B5040003D094F83D00E3
:1053E00010B107E0012010BD002084F83C002046E9
:1053F00000F038F8022084F83D00211D206802F0FA
:105400004BFE012084F8480084F83E0084F83F00F9
:1054100084F8400084F8410084F8420084F8430096
:1054200084F8440084F8450084F8460084F8470076
:1054300084F83D00002010BD084A016808489142E8
:1054400004D1016E21F4006101667047B1F1804F13
:10545000FBD1816D21F0010181657047002C014075
:105460000010024008B50C4A01680C48914207D16F
:10547000016E41F400610166006E00F4006009E015
:10548000B1F1804F07D1816D41F001018165806DDF
:1054900000F00100009008BD002C01400010024007
:1054A00090F83D10012901D001207047022180F8B9
:1054B0003D1000681249884214D0B0F1804F11D0DD
:1054C000104988420ED0104988420BD00F498842BB
:1054D00008D00F49884205D00E49884202D00E49B3
:1054E000884207D181680D4A1140062906D0B1F5DE
:1054F000803F03D0016841F0010101600020704746
:10550000002C01400004004000080040000C004056
:1055100000340140004001400050014007000100FC
:1055200090F83D10012901D001207047022180F838
:105530003D100168CA6842F00102CA600068134960
:10554000884214D0B0F1804F11D0114988420ED05A
:10555000104988420BD01049884208D00F49884230
:1055600005D00F49884202D00E49884207D1816890
:105570000D4A1140062906D0B1F5803F03D00168DD
:1055800041F001010160002070470000002C014043
:105590000004004000080040000C004000340140BE
:1055A00000400140005001400700010070B5044672
:1055B00090F83C00002501281CD0012684F83C60AE
:1055C000022084F83D0022689068334B184020F494
:1055D0007F4090600868B0F5005F2ED016DC402850
:1055E00049D009DCD0B1102818D0202816D0302896
:1055F00049D113E0022070BD50282AD0602830D055
:1056000070280FD0B0F5805F3DD13DE010F00F0F56
:1056100039D10111A1F58031072934D8226801461A
:10562000104625E0CB68D1E90121206802F0C0FDD9
:105630002068816841F0770109E0CB68D1E9012158
:10564000206802F0B5FD2068816841F480418160E6
:105650001AE0CA684968206802F0E8FF5021206813
:1056600006E0CA684968206802F0F1FF60212068FE
:1056700002F0A8FD08E0CA684968206802F0D6FF79
:1056800040212068F4E7012584F83D60002084F87B
:105690003C00284670BD000088FFCEFF90F83C20FB
:1056A000012A0CD0012200F83C2F0223437050F84D
:1056B0003C3C59614270002101700846704702204D
:1056C000704770472DE9F04104460068C6680569D7
:1056D0004FF00007A90713D5B10711D5F91E0161D5
:1056E00001202077206880698007204602D0FFF7DC
:1056F000E8FF04E000F039F9204600F085FA27774A
:10570000680716D5700714D521686FF0040008618A
:10571000022020772068806910F4407F204602D064
:10572000FFF7CFFF04E000F020F9204600F06CFA0C
:105730002777280715D5300713D521686FF00800A3
:105740000861042020772068C0698007204602D0C5
:10575000FFF7B7FF04E000F008F9204600F054FA24
:105760002777E80616D5F00614D521686FF01000EB
:105770000861082020772068C06910F4407F204627
:1057800002D0FFF79EFF04E000F0EFF8204600F0A3
:105790003BFA2777E80708D0F00706D021686FF0BA
:1057A00001000861204600F017FB280601D4A80478
:1057B00008D5300606D521686FF4025008612046EE
:1057C000FFF71FFCE80508D5300606D521686FF401
:1057D000807008612046FFF713FC680608D5700644
:1057E00006D521686FF040000861204600F029FBD3
:1057F000A80608D5B00606D521686FF0200008611C
:105800002046FFF7FFFBE80208D5F00206D5216825
:105810006FF4801008612046FFF74BFCA80208D502
:10582000B00206D521686FF4001008612046FFF72A
:105830003FFC680208D5700206D521686FF480002D
:1058400008612046FFF736FC28020AD5300208D549
:1058500021686FF4000008612046BDE8F041FFF7C1
:1058600087BDBDE8F0810000F0B587B00446142183
:105870006846FAF7A6FD1E492068884236D11D48C1
:10588000C16C41F00201C164C16C01F002010591DB
:10589000C16C41F00101C164C06C022500F001003F
:1058A00005904FF4C04000900024CDE90154062635
:1058B000114FCDE9034669463846FDF793FCA8032E
:1058C0000090CDE901540420CDE9034069463846F3
:1058D000FDF788FC4FF4E0600090CDE90154CDE97C
:1058E000034669464FF09040FDF77CFC07B0F0BDE1
:1058F000002C0140001002400004004870B504462E
:1059000090F83C00002501280BD0012084F83C00D1
:105910000C2A1ED007DC82B1042A12D0082A06D134
:1059200013E0022070BD102A17D0142A19D00125C7
:10593000002084F83C00284670BD206802F04CFC32
:10594000F6E7206802F09EFCF2E7206802F0EAFC2D
:10595000EEE7206802F036FDEAE7206802F082FDFB
:10596000E6E7206802F0BAFDE2E7704770B504464A
:10597000022269B1042912D0082917D00C291CD0A1
:10598000102921D094F84300012824D0012070BDB3
:1059900094F83E000128F9D184F83E201DE094F8E7
:1059A0003F000128F2D184F83F2016E094F840002F
:1059B0000128EBD184F840200FE094F84100012841
:1059C000E4D184F8412008E094F842000128DDD1B8
:1059D00084F8422001E084F843200122206802F08C
:1059E000CDFB1D4920681D4A1D4B1E4D88420BD022
:1059F000904209D0984207D01B4EB04204D01B4EB3
:105A0000B04201D0A84203D1466C46F40046466439
:105A10002068884211D0B0F1804F0ED014498842DE
:105A20000BD01449884208D01349884205D09042CF
:105A300003D0984201D0A84207D181680F4A114093
:105A4000062906D0B1F5803F03D0016841F001017D
:105A50000160002070BD0000002C014000340140B6
:105A60000040014000500140004401400048014016
:105A70000004004000080040000C00400700010046
:105A800070B5044690F83C0000260D4601280BD066
:105A9000012084F83C000C2A4AD007DC82B1042A99
:105AA00020D0082A06D131E0022070BD102A53D040
:105AB000142A63D00126002084F83C00304670BDD3
:105AC000206802F089FB2068816941F0080181614A
:105AD0002068816921F004018161206881692A6957
